:100000000C94700A0C94A10A0C94A10A0C94A10AF5
:100010000C94A10A0C94A10A0C94A10A0C94A10AB4
:100020000C94A10A0C94A10A0C94A10A0C94A10AA4
:100030000C94A10A0C94A10A0C94A10A0C94A10A94
:100040000C94A10A0C94F7570C94A10A0C94A10AE1
:100050000C94A10A0C94A10A0C947B650C94716A0F
:100060000C94A10A0C94A10A0C94A10A0C94A10A64
:100070000C94A10A0C94A10A0C94A10A0C94A10A54
:100080000C94A10A0C94A10A0C94A10A0C94A10A44
:100090000C94A10A0C94A10A0C94A10A0C94B440EB
:1000A0000C94A10A0C94A10A0C94A10A0C94A10A24
:1000B0000C94A10A0C94A10A0C94A10A0C94A10A14
:1000C0000C94A10A0C94A10A0C94A10A0C94A30A02
:1000D0000C94A10A0C94A10A0C94A10A0C94A10AF4
:1000E0000C94A10A4A756E203238203230313732F2
:1000F000303A31303A3135004C6B516B566B606B96
:100100006A6BE36B746B7C6B846B8E6B986BA26B0E
:10011000B16BBB6BE36BC56BCF6BD96B046C076CBE
:10012000F66BFA6B006C3E6C0B6C0F6C156C196CFB
:100130001D6C236C276C2B6C3E6C316C356C396CF0
:10014000084AD73B3BCE016E84BCBFFDC12F3D6C3E
:1001500074319ABD56833DDA3D00C77F11BED9E4A4
:10016000BB4C3E916BAAAABE000000803F05A84C84
:10017000CDB2D44EB93836A9020C50B99186880850
:100180003CA6AAAA2ABE000000803F005072696EF9
:100190007465722073746F70706564206475652077
:1001A000746F206572726F72732E204669782074A6
:1001B0006865206572726F7220616E642075736568
:1001C000204D39393920746F2072657374617274EF
:1001D0002E202854656D7065726174757265206992
:1001E000732072657365742E2053657420697420C2
:1001F00061667465722072657374617274696E678A
:100200002900504F534954494F4E5F4552524F5267
:100210003A204F72646572656420746F206D6F764A
:1002200065206F757473696465206F66206E6F72E8
:100230006D616C20766F6C756D652E00534552496B
:10024000414C5F494E5055545F54494D454F5554AC
:100250003A204E6F20636F6D6D616E64732072651E
:10026000636569766564206F7665722074696D6573
:100270002E205361666574792073687574646F7796
:100280006E005341464554595F4552524F523A20F1
:10029000536166657479206369726375697420744B
:1002A0007269676765726564004932435F434F4D09
:1002B0004D5F4552524F52004932435F48454144D9
:1002C0005F434F4D4D5F4552524F520058595F4565
:1002D0004E4453544F505F4552524F523A20456E50
:1002E0006473746F70207374696C6C2070726573C2
:1002F000736564206166746572206261636B696E08
:1003000067206F66662E20456E6473746F7020736D
:100310007475636B3F0058595F454E4453544F50BA
:100320005F4552524F523A20456E6473746F70208D
:100330006E6F742070726573736564206166746596
:100340007220686F6D696E6720646F776E2E20452E
:100350006E6473746F702062726F6B656E3F005ACB
:100360005F454E4453544F505F4552524F523A20CE
:10037000456E6473746F70207374696C6C20707256
:100380006573736564206166746572206261636B76
:10039000696E67206F66662E20456E6473746F7099
:1003A00020737475636B3F005A5F454E4453544F3E
:1003B000505F4552524F523A20456E6473746F70CD
:1003C000206E6F742070726573736564206166744B
:1003D000657220686F6D696E6720646F776E2E207E
:1003E000456E6473746F702062726F6B656E3F0050
:1003F0004845415445525F4552524F523A310048A8
:1004000045415445525F4552524F523A30004245A1
:10041000445F4D415854454D505F4552524F523AFA
:100420002054656D706572617475726520686561D0
:1004300074656420626564207377697463686564B9
:10044000206F66662E204D415854454D50207472E1
:1004500069676765726564202121004558545255CB
:100460004445525F4D494E54454D505F4552524FA1
:10047000523A313A20457874727564657220737708
:10048000697463686564206F66662E204D494E541A
:10049000454D50207472696767657265642021005C
:1004A00045585452554445525F4D494E54454D5060
:1004B0005F4552524F523A303A2045787472756413
:1004C0006572207377697463686564206F66662E51
:1004D000204D494E54454D502074726967676572CE
:1004E000656420210045585452554445525F4D41A2
:1004F0005854454D505F4552524F523A313A20457B
:100500007874727564657220737769746368656462
:10051000206F66662E204D415854454D5020747210
:1005200069676765726564202100455854525544D7
:1005300045525F4D415854454D505F4552524F52C0
:100540003A303A2045787472756465722073776921
:100550007463686564206F66662E204D415854456B
:100560004D502074726967676572656420210020B0
:1005700050006F6B204E006F6B00526573656E64A8
:100580003A20002200556E6B6E6F776E20636F6DA0
:100590006D616E643A2022005374646465765E3245
:1005A0003A20004D61783A20004D696E3A200041B2
:1005B0007665726167653A2000486F74656E6420E5
:1005C0006F6666736574733A007A5F6D61783A207E
:1005D00000795F6D61783A2000785F6D696E3A202E
:1005E000005A3A00593A0020636F756E7420583AE9
:1005F00000453A005A3A00593A00583A0020420061
:100600002054002050006F6B204E005741524E493D
:100610004E473A204E4F20284F52204E4F542045EF
:100620004E4F55474829204441544120464F554E8E
:1006300044004552524F523A20444154415F4E4F7C
:1006400054205752495454454E00444154415F5739
:1006500052495454454E0057524954494E47005749
:1006600041524E494E473A204E4F2044415441207A
:10067000504152414D4554455220464F554E44003D
:100680005741524E494E473A204E4F204144445222
:1006900045535320504152414D4554455220464FF9
:1006A000554E44005741524E494E473A204E4F2036
:1006B000544F4F4C20504152414D455445522046D5
:1006C0004F554E44004E4F2D484F54454E44004424
:1006D0004154413A203078005041474520494E442A
:1006E0004558204F5554204F462052414E47450013
:1006F0004E4F2D484F54454E440053455249414CAE
:100700003A005072696E7465722073746F70706510
:10071000642064756520746F206572726F72732E29
:100720002046697820746865206572726F72206156
:100730006E6420757365204D39393920746F2072CD
:100740006573746172742E202854656D70657261D2
:10075000747572652069732072657365742E2053F9
:1007600065742069742061667465722072657374A3
:10077000617274696E6729004E6F204C696E652046
:100780004E756D6265722077697468206368656371
:100790006B73756D2C204C617374204C696E653AD7
:1007A00020004E6F20436865636B73756D20776919
:1007B0007468206C696E65206E756D6265722C20A0
:1007C0004C617374204C696E653A20006368656300
:1007D0006B73756D206D69736D617463682C204C4B
:1007E000617374204C696E653A20004C696E652017
:1007F0004E756D626572206973206E6F74204C6156
:100800007374204C696E65204E756D6265722B3174
:100810002C204C617374204C696E653A20004D3178
:100820003130007374617274004255494C443A4A45
:10083000756E20323820323031372032303A313044
:100840003A31350000000000030007000C001300DF
:100850001C00260031003F004E005E007000840046
:100860009900B000C800E200FE001B013A015B01E4
:100870007D01A101C601EE01170241026E029C0238
:10088000CC02FE02310367039E03D70312044E0419
:100890008D04CD04100554059A05E2052D06790650
:1008A000C70618076A07BF0715086E08C908260992
:1008B0008609E7094B0AB20A1A0B850BF20B620C88
:1008C000D40C490DC00D3A0EB60E350FB60F3A10C6
:1008D000C1104B11D7116612F8128C132414BE14D8
:1008E0005B15FC159F164517EF179B184B19FE1942
:1008F000B41A6D1B2A1CEA1CAD1D731E3D1F0B2074
:10090000DC20B02188226423432426250C26F726E8
:10091000E527D628CC29C52AC32BC42CC92DD22E15
:10092000DF2FF03005321E333B345C358136AA3779
:10093000D838093A3F3B793CB73DFA3E40408B41BD
:10094000DA422E448545E1464148A5490D4B7A4C93
:10095000EB4D604FD9505752D8535E55E7567558F6
:10096000075A9D5B365DD45E76601B62C463716519
:100970002267D6688E6A496C086ECA6F8F71587389
:100980002375F276C478987A707C497E2680058239
:10099000E683CA85B0879789818B6C8D598F489182
:1009A000389328951A970D99019BF59CEA9EDFA034
:1009B000D4A2C9A4BEA6B2A8A5AA98AC8AAE7BB0A0
:1009C0006BB258B445B62FB817BAFDBBE0BDC1BF76
:1009D0009EC179C350C523C7F3C8BFCA87CC4ACECE
:1009E00008D0C2D177D326D5D0D675D813DAABDBF1
:1009F0003DDDC9DE4EE0CCE142E3B2E41AE67AE73F
:100A0000D2E823EA6BEBAAECE1ED0FEF35F051F100
:100A100063F26DF36CF462F54EF631F708F8D6F830
:100A200099F952FA00FBA3FB3CFCC9FC4CFDC3FD49
:100A30002FFE91FEE6FE31FF70FFA4FFCCFFE8FF22
:100A4000FAFFFFFFFF01010000E0400000E040006E
:100A500000E0406563686F3A0050726F746F4572D2
:100A6000723A000A4572726F723A005741524E490B
:100A70004E473A46494C414D454E545F464C4F57C0
:100A80003A004C4F473A4932435F434F4D4D5F4523
:100A900052524F523A0020746F6F206C6F6E672075
:100AA000657874727573696F6E2070726576656EA5
:100AB0007465640020636F6C64206578747275736C
:100AC000696F6E2070726576656E7465640065632B
:100AD000686F3A00205A3A0020593A0020583A00EC
:100AE000656E6473746F7073206869743A200024B3
:100AF000F4D43050C38E20C2A24017828B701112E2
:100B00007A910D816CD90AA861E108C7586607611E
:100B10005143061E4B5D05C145A7041A4111040946
:100B20003D9803713931034036DB0265339102D4BD
:100B3000305402802E1D02632CEE01752AC501B0CF
:100B400028A001102781018F2564012B244B01E08F
:100B5000223401AC211F018D200D01801FFC008477
:100B60001EED00971DDF00B81CD200E61BC600205A
:100B70001BBC00641AB200B219A8000A19A0006ACE
:100B8000189900D117910040178B00B516840031D9
:100B9000167E00B31579003A157300C7146F00581C
:100BA000146A00EE1366008813630025135E00C705
:100BB000125B006C12570015125400C111510070E5
:100BC000114F0021114B00D61049008D10470046EF
:100BD00010440002104200C00F4000800F3E00424F
:100BE0000F3C00060F3B00CB0E3800930E37005C25
:100BF0000E3500270E3400F30D3200C10D31009088
:100C00000D3000600D2E00320D2D00050D2C00D989
:100C10000C2B00AE0C2900850C29005C0C2700353C
:100C20000C27000E0C2600E80B2400C40B2400A0A7
:100C30000B23007D0B23005A0B2100390B210018D8
:100C40000B2000F80A1F00D90A1E00BB0A1E009DD7
:100C50000A1D00800A1D00630A1C00470A1B002CA5
:100C60000A1B00110A1A00F7091A00DD091900C44D
:100C7000091900AB091900920917007B09180063D4
:100C80000917004C09160036091600200916000A3B
:100C9000091500F5081500E0081400CC081400B888
:100CA000081400A4081400900813007D0812006BBB
:100CB00008130058081200460812003408110023D7
:100CC0000811001208110001081100F0071000E0DF
:100CD000071000D0071000C0071000B0070F00A1D8
:100CE00007100091070E0083070F0074070F0065BF
:100CF000070E0057070E0049070E003B070D002E98
:100D0000070E0020070D0013070D0006070D00F960
:100D1000060C00ED060D00E0060C00D4060C00C821
:100D2000060C00BC060C00B0060C00A4060B0099D3
:100D3000060C008D060B0082060B0077060B006C7C
:100D4000060B0061060A0057060B004C060A00421B
:100D5000060A0038060A002E060A0024060A001AAF
:100D6000060A001006090007060A00FD050900F43E
:100D7000050900EB050900E2050900D9050900D0C5
:100D8000050900C7050900BE050900B5050800AD45
:100D9000050800A50509009C050800940508008CBD
:100DA000050800840508007C050800740508006C2F
:100DB000050700650508005D050700560508004E9B
:100DC0000507004705070040050800380507003102
:100DD0000507002A050700230507001C0506001665
:100DE0000507000F0507000805060002050700FBC0
:100DF000040600F5040700EE040600E8040600E21D
:100E0000040700DB040600D5040600CF040600C971
:100E1000040600C3040600BD040600B7040600B1C2
:100E2000040500AC040600A6040600A00405009B0F
:100E300004060095040500900406008A0405008558
:100E4000040500800406007A04050075040500709E
:100E50000405006B04050066040500610405005CE0
:100E600004050057040500520405004D0405004820
:100E7000040500430405003E0404003A040500355F
:100E8000040500300404002C04050027040400239A
:100E90000405001E0404001A0404001604050011D1
:100EA0000404000D04040009040500040404000007
:100EB000040400FC030400F8030400F4030400F03D
:100EC000030400EC030400E8030400E4030400E06E
:100ED000030400DC030400D8030400D4030400D09E
:100EE000030400CC030400C8030300C5030300246B
:100EF000F404D9201BC40C5C0E9804C4095F02657D
:100F0000077101F405F900FB04B30048048700C130
:100F10000369005803550003034500BE023A0084EC
:100F200002310053022A002902250004022000E4B5
:100F3000011C00C8011900AF0117009801140084BA
:100F4000011300710110006101100051010E0043F6
:100F5000010D0036010B002B010B0020010B0015C9
:100F60000109000C01090003010800FB000800F35F
:100F7000000800EB000700E4000600DE000600D8D1
:100F8000000600D2000600CC000500C7000500C224
:100F9000000500BD000400B9000400B5000400B164
:100FA000000400AD000400A9000400A5000300A295
:100FB0000003009F0004009B0003009800030095BD
:100FC00000020093000300900003008D0002008BDC
:100FD00000030088000200860002008400030081F4
:100FE0000002007F0002007D0002007B0002007909
:100FF0000002007700010076000200740002007217
:10100000000100710002006F0002006D0001006C21
:101010000002006A0001006900020067000100662A
:10102000000100650001006400020062000100612F
:10103000000100600001005F0002005D0001005C33
:101040000001005B0001005A000100590001005836
:101050000001005700010056000100550001005436
:101060000001005300000053000100520001005134
:10107000000100500001004F0001004E0000004E32
:101080000001004D0001004C0001004B0000004B2E
:101090000001004A0001004900010048000000482A
:1010A0000001004700010046000000460001004525
:1010B000000000450001004400010043000000431F
:1010C0000001004200000042000100410000004118
:1010D000000100400001003F0000003F0001003E11
:1010E0000000003E0001003D0000003D0001003C0A
:1010F0000000003C0000003C0001003B0000003B01
:101100000001003A0000003A0001003900000039F7
:1011100000010038000000380000003800010037EE
:1011200000000037000100360000003600000036E5
:1011300000010035000000350000003500010034DA
:1011400000000034000000340001003300000033D0
:1011500000000033000100320000003200000032C5
:1011600000010031000000310000003100010030BA
:1011700000000030000000300001002F0000002FB0
:101180000000002F0000002F0001002E0000002EA4
:101190000000002E0001002D0000002D0000002D99
:1011A0000000002D0001002C0000002C0000002C8D
:1011B0000000002C0001002B0000002B0000002B81
:1011C0000000002B0001002A0000002A0000002A75
:1011D0000000002A00010029000000290000002969
:1011E000000000290000002900010028000000285C
:1011F000000000280000002800000028000100274F
:101200000000002700000027000000270000002742
:101210000001002600000026000000260000002635
:101220000000002600010025000000250000002528
:10123000000000250000002500000025000100241A
:10124000000000240000002400000024000000240E
:101250000001002300000023000000230000002301
:1012600000000023000000230000002300010022F2
:1012700000000022000000220000002200000022E6
:1012800000000022000100210000002100000021D8
:1012900000000021000000210000002100000021CA
:1012A00000010020000000200000002000000020BD
:1012B00000000020000000200000002000000020AE
:1012C0000001001F0000001F0000001F0000001FA1
:1012D0000000001F0000001F0000001F0001001E92
:1012E0000000001E0000001E0000001E000000653F
:1012F00063686F3A00D8BBCEFF78C7000090D23247
:101300000038DD640068E7960028F1C80088FAFA22
:101310000080032C01200C5E0160149001501CC25F
:1013200001F023F401A03FBC0200000000180701F7
:1013300000A807140030082800B8083C00380950FD
:1013400000C0096400480A7800C80A8C00480BA055
:1013500000C80BB400480CC800C80CDC00400DF0FD
:1013600000C00D0401380E1801B00E2C01280F40EA
:1013700001A00F54011810680188107C0100119021
:10138000013013F401481558024017BC02281920F7
:1013900003F01A8403A81CE803401E4C0400000A52
:1013A0000B02090C0D0E08070304010000000000E9
:1013B000000000000000000000000000000000002D
:1013C00000000000000000000012111000000000EA
:1013D000000000000000000000000000000000000D
:1013E00000000001021020200808102040102040BA
:1013F00080020102010804020101020408102040D9
:1014000080804020100804020180040201804020F6
:10141000100804020108040201010204081020401F
:101420008001020408102040800505050507050815
:10143000080808020202020A0A0808040404040157
:101440000101010101010103030303030303030479
:101450000707070C0C0C0C0C0C0C0C020202020609
:10146000060606060606060B0B0B0B0B0B0B0B00FA
:10147000002200250028002B002E0031003400023D
:10148000010000050108010B0100002100240027D4
:10149000002A002D00300033000101000004010784
:1014A000010A014E414E494E495459494E46CDCC50
:1014B000CC3D0AD7233C17B7D13877CC2B32959542
:1014C000E6241FB14F0A000020410000C84200403E
:1014D0001C4620BCBE4CCA1B0E5AAEC59D74246768
:1014E00011241FBECFEFD1E2DEBFCDBF00E00CBFA5
:1014F00016E0A0E0B2E0EAEDFCEE00E00BBF02C0B7
:1015000007900D92A236B107D9F727E1A2E6B6E01F
:1015100001C01D92A237B207E1F714E1C0EED4E199
:1015200000E006C022970109FE010BBF0E9425734F
:10153000CE3DD10780E00807A9F70E94AE6C0C945D
:101540006B760C9400001F920F920FB60F9211242D
:101550000BB60F922F933F934F935F936F938F939D
:101560009F93EF93FF936091D6002091E306309113
:10157000E406C90101968F7799274091E5065091BD
:10158000E6068417950741F0F901ED59F94F60839C
:101590009093E4068093E306FF91EF919F918F91E2
:1015A0006F915F914F913F912F910F900BBE0F90D4
:1015B0000FBE0F901F9018959A01AB0182E08093A7
:1015C000D00060E079E08DE390E00E94DA71215074
:1015D000310941095109CA01B90122E030E040E076
:1015E00050E00E94DA71832F99278093D5002093D1
:1015F000D400E1EDF0E080818061808380818860AB
:10160000808380818068808308952091E5063091F1
:10161000E6068091E3069091E4068217930771F045
:10162000F901ED59F94F80812F5F3F4F2F77332715
:101630003093E6062093E50690E008958FEF9FEF44
:1016400008954F925F926F927F928F929F92AF9286
:10165000BF92CF92DF92EF92FF920F931F93CF939F
:10166000DF93CDB7DEB7A0970FB6F894DEBF0FBEFD
:10167000CDBF5C014115510561057105E9F420E01C
:1016800030E040E350E060E070E0A0960FB6F894E0
:10169000DEBF0FBECDBFDF91CF911F910F91FF90A5
:1016A000EF90DF90CF90BF90AF909F908F907F9002
:1016B0006F905F904F905BC08E010F5F1F4FC12CEA
:1016C000D12C76014801422E512C612C712C8FEFC8
:1016D000C81AD80AE80AF80ACB01BA01A301920194
:1016E0000E94B871CA01F80161938F01A901BC0180
:1016F000411551056105710551F7F1E0CF1AD10887
:10170000E108F108F401EC0DFD1D80818A3010F430
:1017100040E301C047E3480F552747FD5095652F2B
:10172000752F20E030E0C50122D081E0C81AD10831
:10173000E108F108EFEFCE16DE06EE06FE0611F721
:10174000A0960FB6F894DEBF0FBECDBFDF91CF914C
:101750001F910F91FF90EF90DF90CF90BF90AF90CF
:101760009F908F907F906F905F904F90089521157C
:10177000310539F48091D00085FFFCCF4093D6002D
:1017800008952A30310509F447C05BCF9A01462FEE
:10179000552747FD5095652F752FE9CFCF93DF93E0
:1017A000EC0120E030E04DE050E060E070E0DFDF91
:1017B00020E030E04AE050E060E070E0CE01DF91F0
:1017C000CF91D5CFFB012191BF01222339F0309178
:1017D000D00035FFFCCF2093D600F4CFDFCF9A01A5
:1017E000AB01662757FD6095762FC1CFCF93DF936E
:1017F000EC019A01AB01662757FD6095762FB7DFA4
:10180000CE01DF91CF91CACFCF93DF93EC01AFDF51
:10181000CE01DF91CF91C2CFCF92DF92EF92FF92B4
:10182000CF93DF93EC016A017B0177FF0FC020E0CB
:1018300030E04DE250E060E070E099DFF094E09439
:10184000D094C094C11CD11CE11CF11C2AE0B7014A
:10185000A601CE01DF91CF91FF90EF90DF90CF9066
:10186000F0CE2115310539F48091D00085FFFCCFF1
:101870004093D6000895E5CE9A01462F50E060E0EF
:1018800070E0EFCF9A01AB0160E070E0EACFCF9358
:10189000DF93EC019A01AB0160E070E0E2DFCE0182
:1018A000DF91CF917BCFCF93DF93EC01DADFCE01D5
:1018B000DF91CF9173CF8F929F92AF92BF92CF92D1
:1018C000DF92EF92FF921F93CF93DF93EC016A01B7
:1018D0007B01122F20E030E0A901C701B6010E9470
:1018E000956D87FF0CC020E030E04DE250E060E0F5
:1018F00070E0CE013CDFF7FAF094F7F8F094B12CE9
:1019000060E070E080E09FE3B11641F020E030E05D
:1019100040E251E40E949C6DB394F6CF9B01AC0170
:10192000C701B6010E94BC6C6B017C010E94096E6C
:101930004B015C010E94396E9B01AC01C701B601ED
:101940000E94BB6C6B017C012AE0B501A401CE01B1
:1019500078DE112361F0E5E9F2E08191882339F026
:101960009091D00095FFFCCF8093D600F6CF112345
:1019700019F120E030E040E251E4C701B6010E94D5
:10198000BC706B017C010E94046E4B01AA2497FC81
:10199000A094BA2CB501A401CE013EDFC501B4016B
:1019A0000E943B6E9B01AC01C701B6010E94BB6C5B
:1019B0006B017C011150DBCFDF91CF911F91FF9024
:1019C000EF90DF90CF90BF90AF909F908F90089551
:1019D00072CFCF93DF93EC016EDFCE01DF91CF9119
:1019E000DDCECF93DF93FC01EC5BF54FE491880FE4
:1019F000991F880F991FEC01C657D54FE7FF04C008
:101A0000FC01EE58F54F03C0FC01E35FFD4FDC0124
:101A1000A258B54F2D913D914D915C91608171819E
:101A2000828193810E94BC6C688379838A839B83C3
:101A3000DF91CF910895FC012491222341F0309150
:101A4000D00035FFFCCF2093D6000196F4CF22E0E2
:101A500030E082E696E0BCCF0A9A129808950A9A7E
:101A600012980895F9DF40E950ED63E070E082E6F6
:101A700096E0A2DDE3E5FAE08491882341F09091BD
:101A8000D00095FFFCCF8093D6003196F5CFE9E2E8
:101A9000F8E08491882341F09091D00095FFFCCF2D
:101AA0008093D6003196F5CF8091D00085FFFCCF92
:101AB0008AE08093D6000E94636A0E94783F0E9469
:101AC000EF3B0E9436460E94B0620E9403570E947C
:101AD0005C600E94373E0E947B410E943042E3E2FC
:101AE000F8E08491882341F09091D00095FFFCCFDD
:101AF0008093D6003196F5CF8091D00085FFFCCF42
:101B00008AE08093D60008958091000790910107A4
:101B100060E070E001960C948373809100079091CF
:101B200001074AE050E060E070E001960C94EB742D
:101B3000809100079091010701960895682F7727FB
:101B400067FD70952091090730910A0740E6429F92
:101B5000C001439F900D1124855F984F0E945D76D0
:101B6000909301078093000721E0892B09F420E07E
:101B7000822F08958091590A8093FF0684E5DEDF65
:101B8000811102C080E00895BFDF0E94096E60935A
:101B9000FF066230B8F3E3E5FAE08491882341F070
:101BA0009091D00095FFFCCF8093D6003196F5CF71
:101BB000E7E9F2E08191882339F09091D00095FF18
:101BC000FCCF8093D600F6CF40E050E06091FF0656
:101BD00082E696E051DE8091D00085FFFCCF8AE05E
:101BE0008093D60081E00895EAE7F5E084918823A8
:101BF00041F09091D00095FFFCCF8093D6003196B4
:101C0000F5CF4091100A5091110A6091120A70911B
:101C1000130A4F5F5F4F6F4F7F4F2AE030E082E63D
:101C200096E0A5DD8091D00085FFFCCF8AE080930F
:101C3000D600E7E7F5E08491882341F09091D00049
:101C400095FFFCCF8093D6003196F5CF8091D000E0
:101C500085FFFCCF8AE08093D60008955F926F9253
:101C60007F928F929F92AF92BF92CF92DF92EF922C
:101C7000FF920F931F93CF93DF9360E6762ECC24D1
:101C8000CA94DC2C760108E010E0E2E0AE2EE7E03A
:101C9000BE2EFAE05F2E662463948091E306909155
:101CA000E4062091E5063091E606821B930B8F77C0
:101CB0009927892B09F4FBC18091050790910607AC
:101CC00008970CF0F4C182E696E09FDC20910307B0
:101CD000309104078A3061F08D3051F08A3321F45D
:101CE00090910207992321F02F3531050CF40EC194
:101CF0002115310519F410920207D9C1C0910707C7
:101D0000D09108077C9E40017D9E900C1124F40127
:101D1000E20FF31FE55FF84F1082809102078111F7
:101D2000F0C0CC0FDD1FCC0FDD1FCC5ED54FC882BD
:101D3000D982EA82FB82C401855F984F4C016EE430
:101D400070E00E945D760097F1F190930107809317
:101D500000074AE050E060E070E001960E94EB74FA
:101D6000688379838A839B83C0910707D091080792
:101D7000FE01EE0FFF1FEE0FFF1FEC5EF54F80918F
:101D8000100A9091110AA091120AB091130A0196BB
:101D9000A11DB11D4081518162817381481759078E
:101DA0006A077B0709F4D0C07C9EC0017D9E900D20
:101DB00011246EE178E0855F984F0E943C76892B74
:101DC00009F0C2C048C16AE270E0C4010E945D76B9
:101DD000892B09F449C0E9E5FAE08491882341F0B0
:101DE0009091D00095FFFCCF8093D6003196F5CF2F
:101DF000E8E7F7E08491882341F09091D00095FFC7
:101E0000FCCF8093D6003196F5CF4091100A5091C7
:101E1000110A6091120A7091130A2AE030E082E6FA
:101E200096E0A5DC8091D00085FFFCCF8AE080930E
:101E3000D600109204071092030739C1E0910707FA
:101E4000F0910807EE0FFF1FEE0FFF1FEC5EF54F3E
:101E500080819181A281B3818093100A9093110AAD
:101E6000A093120AB093130A209107073091080734
:101E7000729EC001739E900D112467E470E0855F2F
:101E8000984F0E945D76009739F1909301078093F7
:101E9000000760E070E001960E9483730E94046E68
:101EA00064307105C8F48091FE068823A9F0F5011D
:101EB0008491E2E0F7E0882349F09091D00095FF0B
:101EC000FCCF8093D60031968491F5CF8091D000DD
:101ED00085FFFCCF5092D6008091070790910807AC
:101EE0000196B8010E94A571909308078093070797
:101EF00080910507909106070196909306078093BD
:101F000005071092040710920307C7CE8B3311F414
:101F100060920207909102079111BFCE409107078E
:101F200050910807B9016F5F7F4F7093040760936A
:101F30000307749EF001759EF00D1124E20FF31F4C
:101F4000E55FF84F8083A9CE7C9E40017D9E900C7A
:101F500011246AE270E0C401855F984F0E945D76AB
:101F6000009781F5E9E5FAE08491882341F09091AA
:101F7000D00095FFFCCF8093D6003196F5CFE2EAF2
:101F8000F7E08491882341F09091D00095FFFCCF39
:101F90008093D6003196F5CF4091100A5091110AE6
:101FA0006091120A7091130A2AE030E082E696E00E
:101FB000DEDB8091D00085FFFCCF8AE08093D600E5
:101FC00013DE37CF20E0C0E0F401E20FF11DE55F42
:101FD000F84F30813A3219F02F5FC327F5CF909335
:101FE00001078093000760E070E001960E94837310
:101FF0000E94046ED0E0C617D70709F41FCFE9E5A9
:10200000FAE08491882341F09091D00095FFFCCFB5
:102010008093D6003196F5CFECECF7E084918823DD
:1020200041F09091D00095FFFCCF8093D60031967F
:10203000F5CF4091100A5091110A6091120A7091E7
:10204000130A2AE030E082E696E091DB8091D0002E
:1020500085FFFCCFB2CFE9E5FAE08491882341F017
:102060009091D00095FFFCCF8093D6003196F5CFAC
:10207000EBEEF7E08491882341F09091D00095FF3A
:10208000FCCF8093D6003196F5CF4091100A509145
:10209000110A6091120A7091130A2AE030E082E678
:1020A00096E065DB8091D00085FFFCCF86CFDF9185
:1020B000CF911F910F91FF90EF90DF90CF90BF9045
:1020C000AF909F908F907F906F905F900895E2E720
:1020D000F5E08491882341F09091D00095FFFCCFEA
:1020E0008093D6003196F5CFE0910907F0910A0769
:1020F000EE0FFF1FEE0FFF1FEC5EF54F4081518189
:10210000628173812AE030E082E696E030DBEFE620
:10211000F5E08491882341F09091D00095FFFCCFA9
:102120008093D6003196F5CF0E94AB566FE070E0F9
:10213000681B71094AE050E082E696E050DB82E6D7
:1021400096E02CCBCF92DF92EF92FF920F931F93EA
:102150002091480A3091490A40914A0A50914B0A0D
:1021600060918A0A70918B0A80918C0A90918D0AF5
:102170000E94956D811179C020914C0A30914D0AD1
:1021800040914E0A50914F0A60918E0A70918F0AC9
:102190008091900A9091910A0E94956D811165C07D
:1021A00020E030E040E752E46091080270910902BB
:1021B00080910A0290910B020E949C6DB9E5CB2E92
:1021C000BAE0DB2E7B018C0124E53AE040E55AE0E1
:1021D0006CE47AE088E49AE00E94AB4A8091480A75
:1021E0009091490AA0914A0AB0914B0A80938A0AB9
:1021F00090938B0AA0938C0AB0938D0A80914C0A1D
:1022000090914D0AA0914E0AB0914F0A80938E0A88
:1022100090938F0AA093900AB093910A8091500AEC
:102220009091510AA091520AB091530A8093920A58
:102230009093930AA093940AB093950A8091540ABC
:102240009091550AA091560AB091570A8093960A28
:102250009093970AA093980AB093990A1F910F91AF
:10226000FF90EF90DF90CF90089560911B027091E6
:102270001C02882777FD8095982F0E943B6E209145
:1022800008023091090240910A0250910B020E940B
:10229000BC7020E030E040E752E40E949C6D20E0FA
:1022A00030E048EC52E488CFAF92BF92CF92DF92F9
:1022B000EF92FF920F931F93CF93DF93D82F20912C
:1022C000400A3091410A4091420A5091430A60917C
:1022D0003C0A70913D0A80913E0A90913F0A0E940B
:1022E000F76FC62F172F082FF92E60911B027091E0
:1022F0001C02882777FD8095982F0E943B6E2091C5
:1023000008023091090240910A0250910B020E948A
:10231000BC7020E030E040E752E40E949C6D20E079
:1023200030E048EC52E40E949C6D2091590A2F93B2
:10233000DF93FF920F931F93CF935B016C01C2E079
:10234000EC2E01E020E04CE35AE068E47AE08AE811
:102350009AE00E9481428091480A9091490AA09196
:102360004A0AB0914B0A80938A0A90938B0AA093F1
:102370008C0AB0938D0A80914C0A90914D0AA091DD
:102380004E0AB0914F0A80938E0A90938F0AA093C1
:10239000900AB093910A8091500A9091510AA091AD
:1023A000520AB091530A8093920A9093930AA09391
:1023B000940AB093950A8091540A9091550AA0917D
:1023C000560AB091570A8093960A9093970AA09361
:1023D000980AB093990A0F900F900F900F900F905A
:1023E0000F90DF91CF911F910F91FF90EF90DF90B1
:1023F000CF90BF90AF900895CF93DF931F92CDB74A
:10240000DEB789830E9486639091FE0689819111CF
:102410007FC18093FE064091100A5091110A60918D
:10242000120A7091130A40930C0A50930D0A60939C
:102430000E0A70930F0A8C3009F46AC1E3E6FAE0E1
:102440009491992341F02091D00025FFFCCF9093E7
:10245000D6003196F5CF883009F4E0C0B8F4843066
:1024600009F488C058F4823009F452C008F074C0EE
:10247000813009F039C1EAE2F5E030C0863009F474
:10248000A9C008F0B9C0E8EAF3E09CC08D3009F4B7
:102490000AC158F48A3009F4E5C008F4D1C08B3081
:1024A00009F022C1E2E8F2E0F6C08333F9F030F43B
:1024B0008E3009F019C1E2E0F2E00EC1843309F474
:1024C00039C0863309F010C1E0EFF3E06CC09091A1
:1024D000D00095FFFCCF8093D60031968491811176
:1024E000F6CF8091D00085FFFCCF0FC1E5EEF4E080
:1024F0008491882341F09091D00095FFFCCF809388
:10250000D6003196F5CF8091D00085FFFCCFFDC07D
:10251000E0EAF4E08491882341F09091D00095FFA7
:10252000FCCF8093D6003196F5CF8091D00085FF07
:10253000FCCFEBC0EBE5F4E08491882341F090916F
:10254000D00095FFFCCF8093D6003196F5CF8091D7
:10255000D00085FFFCCFD9C0EEE0F4E08491882361
:1025600009F4D6C09091D00095FFFCCF8093D6009F
:102570003196F4CFEFEFF3E08491882341F090910E
:10258000D00095FFFCCF8093D6003196F5CF809197
:10259000D00085FFFCCFB9C09091D00095FFFCCF53
:1025A0008093D600319684918111F6CF8091D0002E
:1025B00085FFFCCFAAC09091D00095FFFCCF8093FF
:1025C000D600319684918111F6CF8091D00085FF9D
:1025D000FCCF9BC0EFE5F3E08491882341F090911C
:1025E000D00095FFFCCF8093D6003196F5CF809137
:1025F000D00085FFFCCF89C0E6E1F3E08491882319
:1026000041F09091D00095FFFCCF8093D600319699
:10261000F5CF8091D00085FFFCCF77C0ECECF2E0E5
:102620008491882341F09091D00095FFFCCF809356
:10263000D6003196F5CF8091D00085FFFCCF65C0E4
:10264000E8EBF2E08491882341F09091D00095FF6F
:10265000FCCF8093D6003196F5CF8091D00085FFD6
:10266000FCCF53C0E9EAF2E08491882341F09091D5
:10267000D00095FFFCCF8093D6003196F5CF8091A6
:10268000D00085FFFCCF41C09091D00095FFFCCFDA
:102690008093D600319684918111F6CF8091D0003D
:1026A00085FFFCCF32C0ECE3F2E08491882341F057
:1026B0009091D00095FFFCCF8093D6003196F5CF56
:1026C0008091D00085FFFCCF20C09091D00095FF75
:1026D000FCCF8093D600319684918111F6CF809102
:1026E000D00085FFFCCF11C0ECE8F1E08491882395
:1026F00041F09091D00095FFFCCF8093D6003196A9
:10270000F5CF8091D00085FFFCCF8AE08093D60082
:102710000F90DF91CF9108952F923F924F925F9249
:102720006F927F928F929F92AF92BF92CF92DF92E1
:10273000EF92FF920F931F93CF93DF93EC01FC0175
:10274000EE0FFF1FEE0FFF1FE657F54F10821182AD
:102750001282138226E93AE042E95AE06EE87AE012
:102760008AE89AE00E940955CE018C5B954F4C0196
:10277000FC0174905E01AA0CBB1CAA0CBB1C850159
:10278000085B154FF501E35FFD4FD501AE58B54F1E
:102790002D913D914D915C916081718182819381F8
:1027A0000E94BB6C20E030E040EC5FE30E94BC7014
:1027B0006B017C01672D772767FD7095872F972F19
:1027C0000E943B6E9B01AC01C701B6010E94BC7028
:1027D000F8016083718382839383F501E35EFD4F8B
:1027E00060817181828193816093080270930902F4
:1027F00080930A0290930B0220E030E040E752E41D
:102800000E949C6DE9E5CE2EEAE0DE2E7B018C0174
:1028100024E53AE040E55AE06CE47AE088E49AE0A6
:102820000E94AB4A0E94BF5E8C2F0E94275F2B0143
:102830003C010E94DA57811172C0229709F05BC0F7
:102840001092920A1092930A1092940A1092950A8A
:1028500026E93AE042E95AE06EE87AE08AE89AE04E
:102860000E940955EFE4FAE0C590D590E590F49008
:10287000F4016491F7FAF094F7F8F094772767FD84
:102880007095872F972F0E943B6E9B01AC01C7016B
:10289000B6010E94BC7020E030E040E251E40E94AA
:1028A000BC706093500A7093510A8093520A9093BF
:1028B000530A20E030E040E752E460910802709152
:1028C000090280910A0290910B020E949C6D39E5E9
:1028D000C32E3AE0D32E7B018C0124E53AE040E59B
:1028E0005AE06CE47AE088E49AE00E94AB4A0E94E5
:1028F000BF5E85E001C087E0DF91CF911F910F910E
:10290000FF90EF90DF90CF90BF90AF909F908F900F
:102910007F906F905F904F903F902F906DCDF5011D
:10292000E657F54F108211821282138226E93AE0AF
:1029300042E95AE06EE87AE08AE89AE00E94095596
:10294000C501895B954F1C01FC01C590D590E590B0
:10295000F490F40164918501085B154FF7FAF09447
:10296000F7F8F094772767FD7095872F972F0E94CF
:102970003B6E9B01AC01C701B6010E94BC70F8011F
:10298000608371838283938320E030E040E752E4E8
:10299000609108027091090280910A0290910B02E5
:1029A0000E949C6D29E5C22E2AE0D22E7B018C016B
:1029B00024E53AE040E55AE06CE47AE088E49AE005
:1029C0000E94AB4A0E94BF5EC130D10549F0C230BF
:1029D000D10561F0209799F480B1809581700AC08B
:1029E00080B18295817091E0892704C0079907C062
:1029F00086E003C0882319F088E0FEDCA6C0F10160
:102A00006591759185919491F40134908501085BED
:102A1000154F9B01AC010E94BC6C6B017C01632DC6
:102A2000772767FD7095872F972F0E943B6E9B013C
:102A3000AC01C701B6010E94BC70F80160837183CC
:102A40008283938320E030E040E450E4F501E35ECC
:102A5000FD4F60817181828193810E949C6D6093A2
:102A600008027093090280930A0290930B0220E0FF
:102A700030E040E752E40E949C6D19E5C12E1AE057
:102A8000D12E7B018C0124E53AE040E55AE06CE46C
:102A90007AE088E49AE00E94AB4A0E94BF5E8C2FE5
:102AA0000E94275FF4018490640D751D861D971D9B
:102AB0000E943B6EFE01EE0FFF1FEE0FFF1FE75A55
:102AC000FD4F20813181428153810E949C6D6B01B9
:102AD0007C01682D772767FD7095872F972F0E94BF
:102AE0003B6E9B01AC01C701B6010E94BC70AB01FB
:102AF000BC01E8EAF2E08191882339F09091D0009E
:102B000095FFFCCF8093D600F6CF25E030E082E63B
:102B100096E00E94E90CCE010E94F10CF501E85B01
:102B2000F54FD501A657B54F8D919D910D90BC9154
:102B3000A02D80839183A283B38310920802109208
:102B4000090210920A0210920B02DF91CF911F919D
:102B50000F91FF90EF90DF90CF90BF90AF909F903C
:102B60008F907F906F905F904F903F902F900C943C
:102B7000E7574F925F926F927F928F929F92AF92A0
:102B8000BF92CF92DF92EF92FF920F931F93CF935A
:102B9000DF93FBEDAF2EF2E0BF2EAAE8EA2EAAE00B
:102BA000FA2EC8E4DAE0BCE98B2EBAE09B2E640171
:102BB00000E010E0F50181915F010E949E0D8823E5
:102BC00009F44DC00E94840D688379838A839B83B6
:102BD000F6012081211104C020910B0A222359F013
:102BE000F70120813181428153810E94BC6C68834E
:102BF00079838A839B838C2D88198330C9F148801F
:102C000059806A807B8020E030E048E452E4F8019B
:102C1000EE58F54F60817181828193810E94BB6C77
:102C20009B01AC01C301B2010E94956D87FD15C0E7
:102C300020E030E048E452E4F801E35FFD4F6081BA
:102C40007181828193810E94BC6C9B01AC01C301A4
:102C5000B2010E94EA6F18165CF48EE0CDDBF7013A
:102C600080819181A281B38188839983AA83BB8368
:102C7000F4E0EF0EF11C0C5F1F4F24968FEFC81A83
:102C8000D80A0031110509F095CF86E40E949E0D07
:102C90008823D9F00E94840D6B017C016093380A6F
:102CA0007093390A80933A0A90933B0A20E030E00F
:102CB000A9010E94EA6F181644F4C0920802D0924B
:102CC0000902E0920A02F0920B02DF91CF911F916C
:102CD0000F91FF90EF90DF90CF90BF90AF909F90BB
:102CE0008F907F906F905F904F90089542DF89E4BE
:102CF0000E949E0D882359F00E94840D60933C0A27
:102D000070933D0A80933E0A90933F0A08C0109248
:102D10003C0A10923D0A10923E0A10923F0A8AE441
:102D20000E949E0D882359F00E94840D6093400AF2
:102D30007093410A8093420A9093430A0895109237
:102D4000400A1092410A1092420A1092430A0895D2
:102D50007F928F929F92AF92BF92CF92DF92EF922B
:102D6000FF920F931F93CF93DF930E94BB6A209132
:102D7000EA063091EB06621B730B8091070290E02C
:102D80006817790708F470C00E94BB6A7093EB065D
:102D90006093EA0608EF16E0C0E0D0E0702E709471
:102DA000F80181918F018823B9F19091E906DE0144
:102DB000992311F0823019F4AE50B94F02C0A451DA
:102DC000B94FE091E706F091E806EE0FFF1FEC5BCC
:102DD000F74F45915491EC911196FC9111971296F1
:102DE000AC919A01B0E00E94FC714C01AA24BB2472
:102DF000AF2FB0E00E94FC716C01EE24FF24AE2FD7
:102E0000B0E00E94FC71BC0188279927282D4C2D29
:102E1000872D800F0E9495462396C630D10509F074
:102E2000BFCF209106028091E7069091E806820FBD
:102E3000911D27FD9A959093E8068093E7060097E9
:102E400069F481E0809306029091E906992319F0D4
:102E50001092E90609C08093E90606C08F3F9105EC
:102E600018F08FEF80930602DF91CF911F910F91A1
:102E7000FF90EF90DF90CF90BF90AF909F908F909A
:102E80007F900895069B02C08BE0B6DA0E945D4AEF
:102E90005FCF2F923F924F925F926F927F928F926D
:102EA0009F92AF92BF92CF92DF92EF92FF920F93D9
:102EB0001F93CF93DF93CDB7DEB7C756D1090FB6B7
:102EC000F894DEBF0FBECDBF87E40E949E0D88231D
:102ED00009F434C50E94840D0E94046E6E317105A0
:102EE00009F406C48CF46230710591F124F477FF83
:102EF00026C00C94582B63307105A1F16C3171051B
:102F000009F43AC00C94582B6A35710509F49AC437
:102F100054F46F31710509F45AC46032710509F433
:102F20006FC40C94582B6C35710509F494C40CF4DF
:102F30008DC46D35710509F4E0C40C94582B809153
:102F4000FE0681110C94582B14DEFCD80C94582BDF
:102F50008091FE0681110C94582BC8DE81E0A4D923
:102F60000C94582B8091FE0681110C94582BBEDED8
:102F700080E09AD90C94582B10925D1510925E1532
:102F800010925F15109260151092611510926215E3
:102F900010926315109264158091080290910902B5
:102FA000A0910A02B0910B028093340A9093350AE3
:102FB000A093360AB093370A80911B0290911C02AD
:102FC00090939B0A80939A0A84E690E090931C0267
:102FD00080931B0281E00E94EE5780918A0A9091B3
:102FE0008B0AA0918C0AB0918D0A8093480A909325
:102FF000490AA0934A0AB0934B0A80918E0A909195
:103000008F0AA091900AB091910A80934C0A9093F4
:103010004D0AA0934E0AB0934F0A8091920A909164
:10302000930AA091940AB091950A8093500A9093C4
:10303000510AA093520AB093530A8091960A909134
:10304000970AA091980AB091990A8093540A909394
:10305000550AA093560AB093570A1092080210928C
:10306000090210920A0210920B0288E50E949E0D3E
:10307000882311F090E00AC089E50E949E0D81111D
:10308000F9CF8AE50E949E0D91E0982790930C025B
:10309000992309F44BC110928A0A10928B0A10925C
:1030A0008C0A10928D0A10928E0A10928F0A10923A
:1030B000900A1092910A1092920A1092930A10921A
:1030C000940A1092950A26E93AE042E95AE06EE83D
:1030D0007AE08AE89AE00E9409552091720A3091BC
:1030E000730A4091740A5091750A60910D027091B3
:1030F0000E0280910F02909110020E94BB6C20E0A2
:1031000030E040EC5FE30E94BC70DC01CB01B058C2
:103110008093480A9093490AA0934A0AB0934B0AB5
:103120002091760A3091770A4091780A5091790A75
:103130006091110270911202809113029091140219
:103140000E94BB6C20E030E040EC5FE30E94BC706A
:1031500060934C0A70934D0A80934E0A90934F0AE5
:1031600020917A0A30917B0A40917C0A50917D0A25
:1031700060911502709116028091170290911802C9
:103180000E94BB6C20E030E040EC5FE30E94BC702A
:103190006093500A7093510A8093520A9093530A95
:1031A00060911D0270911E0280911F029091200279
:1031B000609308027093090280930A0290930B02B5
:1031C00020E030E040E752E40E949C6DF9E5CF2E0C
:1031D000FAE0DF2E7B018C0124E53AE040E55AE07D
:1031E0006CE47AE088E49AE00E94AB4A0E94BF5EF9
:1031F0000E94E75780E090E00E94F10C81E090E0AF
:103200000E94F10C82E090E00E94F10C26E93AE085
:1032100042E95AE06EE87AE08AE89AE00E940955AD
:1032200080918A0A90918B0AA0918C0AB0918D0AA4
:103230008093480A9093490AA0934A0AB0934B0A94
:1032400080918E0A90918F0AA091900AB091910A74
:1032500080934C0A90934D0AA0934E0AB0934F0A64
:103260008091920A9091930AA091940AB091950A44
:103270008093500A9093510AA093520AB093530A34
:1032800020E030E040E752E46091080270910902CA
:1032900080910A0290910B020E949C6D7B018C012F
:1032A00024E53AE040E55AE06CE47AE088E49AE00C
:1032B0000E94AB4A109208021092090210920A0270
:1032C00010920B020E94BF5E0E94E7578091480A4D
:1032D0009091490AA0914A0AB0914B0A80938A0AB8
:1032E00090938B0AA0938C0AB0938D0A80914C0A1C
:1032F00090914D0AA0914E0AB0914F0A80938E0A88
:1033000090938F0AA093900AB093910A8091500AEB
:103310009091510AA091520AB091530A8093920A57
:103320009093930AA093940AB093950A80910C020B
:1033300081110C945B2B8AE50E949E0D81110C94E7
:103340005B2B80910C0281110CC088E50E949E0DC0
:10335000882309F431C189E50E949E0D882309F470
:103360002BC110928A0A10928B0A10928C0A10922A
:103370008D0A10928E0A10928F0A1092900A109263
:10338000910A26E93AE042E95AE06EE87AE08AE8F2
:103390009AE00E9409552091720A3091730A409177
:1033A000740A5091750A60910D0270910E0280911D
:1033B0000F02909110020E94BB6C20E030E040ECC4
:1033C0005FE30E94BC70DC01CB01B0588093480AD7
:1033D0009093490AA0934A0AB0934B0A2091760A27
:1033E0003091770A4091780A5091790A60911102E0
:1033F0007091120280911302909114020E94BB6C92
:1034000020E030E040EC5FE30E94BC7060934C0A27
:1034100070934D0A80934E0A90934F0A20911D029B
:1034200030911E0240911F02509120022093080209
:103430003093090240930A0250930B02C09021027C
:10344000D0902202E0902302F0902402C701B6013E
:103450000E94956D87FF08C0C0920802D0920902B1
:10346000E0920A02F0920B0220E030E040E752E4E2
:10347000609108027091090280910A0290910B02FA
:103480000E949C6DE9E5CE2EEAE0DE2E7B018C01E8
:1034900024E53AE040E55AE06CE47AE088E49AE01A
:1034A0000E94AB4A0E94BF5E80E090E00E94F10C57
:1034B00081E090E00E94F10C26E93AE042E95AE00E
:1034C0006EE87AE08AE89AE00E94095580918A0ABB
:1034D00090918B0AA0918C0AB0918D0A8093480A32
:1034E0009093490AA0934A0AB0934B0A80918E0A9E
:1034F00090918F0AA091900AB091910A80934C0A02
:1035000090934D0AA0934E0AB0934F0A20E030E00A
:1035100040E752E4609108027091090280910A022A
:1035200090910B020E949C6D7B018C0124E53AE096
:1035300040E55AE06CE47AE088E49AE00E94AB4A05
:10354000109208021092090210920A0210920B02C5
:103550000E94BF5E0E94E7578091480A9091490AF5
:10356000A0914A0AB0914B0A80938A0A90938B0AE1
:10357000A0938C0AB0938D0A80914C0A90914D0AC9
:10358000A0914E0AB0914F0A80938E0A90938F0AB1
:10359000A093900AB093910A8091500A9091510A99
:1035A000A091520AB091530A8093920A9093930A81
:1035B000A093940AB093950A80910C0281110C9407
:1035C000612B88E50E949E0D81110C94612B8091E6
:1035D0000C0281110C94672B89E50E949E0D8111CC
:1035E0000C94672B88E50E949E0D8823D1F00E94E1
:1035F0008D0D672B682B692BA1F00E94840D209103
:103600007E0A30917F0A4091800A5091810A0E947F
:10361000BC6C60938A0A70938B0A80938C0A909397
:103620008D0A89E50E949E0D8823D1F00E948D0DA0
:10363000672B682B692BA1F00E94840D2091820AD0
:103640003091830A4091840A5091850A0E94BC6C93
:1036500060938E0A70938F0A8093900A9093910AD8
:103660008AE50E949E0D8823D1F00E948D0D672B64
:10367000682B692BA1F00E94840D2091860A30915D
:10368000870A4091880A5091890A0E94BC6C609315
:10369000920A7093930A8093940A9093950A26E96C
:1036A0003AE042E95AE06EE87AE08AE89AE00E945D
:1036B000095580E00E94EE578091340A9091350AB6
:1036C000A091360AB091370A8093080290930902BC
:1036D000A0930A02B0930B0280919A0A90919B0AE0
:1036E00090931C0280931B020E94E7570C94582B66
:1036F00086E40E949E0D882331F00E94840D0E9472
:10370000046E5B0103C078E1A72EB12C86E50E9410
:103710009E0D882331F00E94840D0E94046E4B019F
:1037200003C088248394912C84E40E949E0D8823F6
:1037300029F00E94840D2B013C0106C0412C512C24
:1037400050E2652E51E4752E8AE50E949E0D882375
:1037500029F00E94840D6B017C0103C0C12CD12C87
:10376000760193018201A401B50188E49AE00E94E8
:10377000EE2F6093500A7093510A8093520A9093EF
:10378000530AE0902502F090260200912702109142
:10379000280249E5C42E4AE0D42E24E53AE040E56B
:1037A0005AE06CE47AE088E49AE00E94AB4A4091E7
:1037B000500A5091510A6091520A7091530A25E0C3
:1037C00030E082E696E00E94E90C0C94582B86E5E6
:1037D0000E949E0D882331F00E94840D0E94046E89
:1037E0008B0102C000E010E00E947F3E0E94373E45
:1037F000C8010E94123BC8010E94AA3B0C94582B9E
:1038000088E50E949E0D882351F00E94840D6093EC
:103810005D1570935E1580935F159093601589E533
:103820000E949E0D882311F40C94582B0E94840D45
:10383000609361157093621580936315909364157E
:103840000C94582B10920B0A0C94582B81E0809307
:103850000B0A0C94582B85E40E949E0D811102C026
:103860000E94BF5E3BEDE32E32E0F32E0AE81AE041
:10387000D12CD7018D917D010E949E0D8823A9F145
:10388000B3E0DB1220C00E94840DF80160837183D5
:103890008283938386E99AE00E94805682EC96E1C7
:1038A0000E946B6985E097E10E946B698FE796E162
:1038B0000E946B698091590A882311F08130A9F424
:1038C0000E942C3C12C00E94840DD8016D937D9300
:1038D0008D939C93139726E93AE042E95AE06EE80B
:1038E0007AE08AE89AE00E940955D3940C5F1F4F52
:1038F000B4E0DB12BECF0C94582B85E40E949E0DE1
:10390000882329F00E94840D6B017C0103C0C12C27
:10391000D12C7601B701A60182EC96E10E94A5693F
:10392000B701A60185E097E10E94A569B701A6014C
:103930008FE796E10E94A5690C94582B8DE40E94B4
:103940009E0D882311F40C94A92A0E94840D0E94D4
:10395000046E6C3C710509F452C70CF084C06B36E0
:10396000710509F44FC50CF041C06335710509F4C8
:1039700057C5E4F46035710509F448C554F4613164
:10398000710509F417C16231710509F44EC50C9433
:10399000582B6135710509F43DC56235710511F08B
:1039A0000C94582B10929F0A0C94582B6836710572
:1039B00009F43EC38CF46435710509F436C56C35E1
:1039C000710511F00C94582B3BEDE32E32E0F32EF1
:1039D00009E512E0D12C62C56936710509F460C3AE
:1039E0006A36710509F4E5C40C94582B60397105E9
:1039F00009F4EAC1DCF46C38710509F43EC364F4DF
:103A00006237710509F45BC56737710511F00C94D5
:103A1000582BE9EDF5E03AC66E38710509F4D8C0C7
:103A20006F38710509F411C10C94582B6639710572
:103A300009F44FC254F46139710509F4D6C16539EE
:103A4000710509F4E3C10C94582B693C710509F424
:103A500099C66B3C710509F4B6C66739710511F05A
:103A60000C94582BC5C26633E1E07E0711F40C9428
:103A7000A0280CF049C0623221E0720711F40C94C6
:103A8000E7250CF56A3D710509F44EC784F46D3CD9
:103A9000710509F4D4C66E3C710511F00C94582BD5
:103AA0000BED12E08EE7E82E8AE0F82E2EC76C3D73
:103AB000710511F40C94C9256D3D710511F40C9438
:103AC000D8250C94582B6D3241E0740711F40C94F6
:103AD0005C276CF4633281E0780711F40C940726BC
:103AE0006432714011F40C9436260C94582B6E32CB
:103AF000A1E07A0711F40C9492286033714011F41C
:103B00000C941B280C94582B6139E1E07E0711F4CA
:103B10000C94EA291CF5693321E0720711F40C9426
:103B2000C6297CF4673341E0740711F40C94E8284B
:103B30006833714011F00C94582B0E947F3E0C9416
:103B4000582B6A3381E0780711F40C94C929603945
:103B5000714011F40C94E7290C94582B673EA3E0B4
:103B60007A0711F40C94132A94F46B38E3E07E077F
:103B700011F40C94ED29663E734011F00C94582B0F
:103B80008CE00E94FC110E942F0D0C94582B613E7A
:103B90002EE2720711F40C94572A623E3EE273073C
:103BA00011F40C94862A603E7E4211F00C94582B3E
:103BB0000C94282A15984698439840989FB7F894F3
:103BC00080910B018D7F80930B019FBF0C94582B2C
:103BD00082E70E949E0D882331F00E94840D0E948E
:103BE000096E062F01C000E087E60E949E0D882323
:103BF00031F00E94840D0E94096EF62E01C0F12C56
:103C000082E60E949E0D882331F00E94840D0E945E
:103C1000096EE62E01C0E12C87E70E949E0D8823E5
:103C200031F00E94840D0E94096E162F01C010E031
:103C3000212F4E2D6F2D802F0E946E42612F70E03C
:103C400088E00E94296B0C94582B82E40E949E0D00
:103C5000882331F00E94840D0E94096E6093070250
:103C600084E50E949E0D882359F00E94840D0E94D5
:103C7000096EF62E51E0561710F40C94582B01C023
:103C8000F12C82E70E949E0D0F2D10E0882379F021
:103C90000E94840D6801CC0CDD1CC00ED11ED60123
:103CA000AE50B94F6D010E94096EF601608387E640
:103CB0000E949E0D882381F00E94840D6801CC0C27
:103CC000DD1CC00ED11E96012E50394F69010E9495
:103CD000096ED60111966C9382E60E949E0D882390
:103CE00081F00E94840D6801CC0CDD1CC00ED11E39
:103CF000F601EE50F94F6F010E94096ED60112963F
:103D00006C9381E50E949E0D882379F00E94840DBA
:103D10006801CC0CDD1CC00ED11EF601E451F94F38
:103D20006F010E94096ED6016C9382E50E949E0D80
:103D3000882381F00E94840D6801CC0CDD1CC00E2C
:103D4000D11EF601E451F94F6F010E94096ED601B0
:103D500011966C9383E50E949E0D882381F00E944A
:103D6000840D6801CC0CDD1CC00ED11EF601E4519F
:103D7000F94F6F010E94096ED60112966C9380E58F
:103D80000E949E0D882351F00E94840DF801E85096
:103D9000F94F6F010E94096ED6016C93F801E8504B
:103DA000F94F808181110C94582BF801EE0FFF1F01
:103DB000E00FF11FEE50F94F2281418160818F2D7C
:103DC0000E9495460C94582B84E50E949E0D8823F2
:103DD00011F40C94582B0E94840D0E94096E862FBA
:103DE00061E00E9479620C94582B84E50E949E0D3C
:103DF000882311F40C94582B0E94840D0E94096EA4
:103E0000862F60E00E9479620C94582B84E50E9412
:103E10009E0D882311F40C946D2B0E94840D20E0DC
:103E200030E0A9010E94956D882311F40C946D2B4C
:103E300081E0BE016F5F7F4F0E948C45882399F11E
:103E4000EAEFF6E08491882341F09091D00095FF4D
:103E5000FCCF8093D6003196F5CF8E010F5F1F4FB8
:103E60007E01B7E0EB0EF11C6801F8018081803122
:103E700038F440E050E060E382E696E00E94C60B32
:103E80000F5F1F4F40E150E0D6016C9182E696E053
:103E90000E943C0C0E151F0539F782E696E00E9441
:103EA000CE0B0C94582BE0EFF6E08491882341F080
:103EB0009091D00095FFFCCF8093D6003196F5CF3E
:103EC0008091D00085FFFCCF8AE08093D6000C94CF
:103ED000582B8E010F5B1F4FF801108284E50E9462
:103EE0009E0D882311F40C94702B0E94840D20E009
:103EF00030E0A9010E94956D882311F40C94702B79
:103F0000FF24F39480E50E949E0D8823E1F00E9437
:103F1000840D0E94096E6430B8F0E8EDF6E08491FB
:103F2000882341F09091D00095FFFCCF8093D6007C
:103F30003196F5CF8091D00085FFFCCF8AE0809349
:103F4000D6000C94582B60E06295660F607E20E2EC
:103F5000AE014E5B5F4F8F2D0E94B545882391F1D6
:103F6000FE013196CE018E5B9F4FBF01DC012D918A
:103F7000CD01A22FB0E034E0B595A7953A95E1F7D1
:103F8000A653BD4F3C9130832F70A22FB0E0A653B3
:103F9000BD4F2C9121833296E017F10739F7EFECF2
:103FA000F6E08491882341F09091D00095FFFCCFFA
:103FB0008093D6003196F5CF82E696E00E94E20B20
:103FC0000C94582BE5ECF6E08491882341F0909115
:103FD000D00095FFFCCF8093D6003196F5CF80912D
:103FE000D00085FFFCCF8AE08093D6000C94582B3C
:103FF00084E50E949E0D882311F40C94732B0E947B
:10400000840D20E030E040E85FE30E94956D882356
:1040100011F40C94882B0E94840D20E030E0A9015B
:104020000E94956D882311F40C94882B0C94732BAB
:104030000E94BA0D81110C94582B83E50E949E0DAD
:10404000882311F40C94582BE091FF06F0E0ED5614
:10405000FD4F808181110C94582B0E94840DE091BA
:10406000FF06B3E4EB9FF0011124EE53F94E63A772
:1040700074A785A796A70C94582B83E50E949E0DE4
:10408000882311F40C94582B0E94840D6093AA1677
:104090007093AB168093AC169093AD160C94582B7E
:1040A000E6E0F6E08491882341F09091D00095FFFE
:1040B000FCCF8093D6003196F5CFE0910907F091BF
:1040C0000A07EE0FFF1FEE0FFF1FEC5EF54F40815A
:1040D0005181628173812AE030E082E696E00E949D
:1040E000B70BE3E0F6E08491882341F09091D00093
:1040F00095FFFCCF8093D6003196F5CF0E94AB564A
:104100006FE070E0681B71094AE050E082E696E0DB
:104110000E94EF0B1092FF0600E016E073E4F72E0A
:10412000EE24E3948091FF06823008F0DFC0F801AE
:104130008491E0E0F6E0882349F09091D00095FF6B
:10414000FCCF8093D60031968491F5CF6091FF0625
:1041500070E04AE050E082E696E00E94EF0B40E01B
:1041600050E06AE382E696E00E94C60BE091FF060B
:1041700024E0E29FF0011124E75DF94E4081518176
:104180006281738121E030E082E696E00E94E80CD3
:1041900040E050E06FE282E696E00E94C60BE091BC
:1041A000FF06FE9EF0011124EE53F94E43A554A5DF
:1041B00065A576A521E030E082E696E00E94E80C55
:1041C00040E050E060E482E696E00E94C60B8091F9
:1041D000FF0690E0880F991FFC01E75EF94E6081B1
:1041E000718161157105E9F0FC01E35EF94E808192
:1041F00091810E9491714AE050E082E696E00E942F
:10420000420C8091FF0690E0880F991FFC01E35E4D
:10421000F94E11821082FC01E75EF94E1182108284
:1042200007C040E050E060E382E696E00E94C60BE3
:1042300040E050E060E782E696E00E94C60BE09125
:10424000FF06F0E0EF5DF94E608170E04AE050E07B
:1042500082E696E00E94EF0B40E050E065E682E6E1
:1042600096E00E94C60BE091FF06F0E0ED56FD4F90
:1042700060816E2570E04AE050E082E696E00E94A0
:10428000EF0B40E050E066E682E696E00E94C60B47
:10429000E091FF06F0E0EE0FFF1FE855F04F608160
:1042A00071814AE050E082E696E00E94420C40E0D4
:1042B00050E06FE282E696E00E94C60BE091FF06B6
:1042C00034E0E39FF0011124E056F04F408151812A
:1042D000628173812AE030E082E696E00E94B70BAB
:1042E0008091FF068F5F8093FF061CCFEDEFF5E016
:1042F0008491882341F09091D00095FFFCCF80936A
:10430000D6003196F5CF4091231650912416609136
:1043100025167091261621E030E082E696E00E9494
:10432000E80C40E050E06FE282E696E00E94C60BA7
:104330004091AA165091AB166091AC167091AD16D3
:1043400021E030E082E696E00E94E80C40E050E098
:1043500060E482E696E00E94C60B609115167091AB
:10436000161661157105A9F080911716909118160F
:104370000E9491714AE050E082E696E00E94420C71
:1043800010921816109217161092161610921516F3
:1043900007C040E050E060E382E696E00E94C60B72
:1043A0008091D00085FFFCCF8AE08093D6000C94EA
:1043B000872C83E50E949E0D8823F9F00E94840DCE
:1043C00020E030E0A9010E94956D87FD0FC00E949A
:1043D000840D20E030E04FE753E40E94EA6F1816A6
:1043E0003CF00E94840D0E94096E03C060E001C091
:1043F0006FEF6093580A0C94582B8FEF8093580AF4
:104400000C94582B1092580A0C94582B0A9A129A12
:104410000C94582B0E94BF5E0E942F0D0C94582BB9
:1044200081E080939F0A0C94582B88E50E949E0D92
:1044300081110C94662C89E50E949E0D81110C94CB
:10444000662C8AE50E949E0D81110C94662C85E4F1
:104450000E949E0D81110C94662C0E94BF5E409AB2
:104460009FB7F89480910B01826080930B019FBFEE
:104470000E94355F0C94582BB3E0DB1217C00E94EA
:10448000840DF8016083718382839383D3940C5FDE
:104490001F4FB4E0DB1611F40C94582BD7018D910B
:1044A0007D010E949E0D882389F3E6CF0E94840D32
:1044B000D8016D937D938D939C931397E7CFEAEF8B
:1044C000F5E08491882341F09091D00095FFFCCFD6
:1044D0008093D6003196F5CF40918A0A50918B0A8D
:1044E00060918C0A70918D0A22E030E082E696E0BD
:1044F0000E94E80CE7EFF5E08491882341F0909169
:10450000D00095FFFCCF8093D6003196F5CF409137
:104510008E0A50918F0A6091900A7091910A22E060
:1045200030E082E696E00E94E80CE4EFF5E084914A
:10453000882341F09091D00095FFFCCF8093D60066
:104540003196F5CF4091920A5091930A6091940A66
:104550007091950A22E030E082E696E00E94E80C35
:10456000E1EFF5E08491882341F09091D00095FF30
:10457000FCCF8093D6003196F5CF4091960A5091AA
:10458000970A6091980A7091990A22E030E082E6D9
:1045900096E00E94E80CE7EEF5E08491882341F074
:1045A0009091D00095FFFCCF8093D6003196F5CF47
:1045B0000E94275F0E943B6E2091590230915A025F
:1045C00040915B0250915C020E949C6DAB01BC016A
:1045D00022E030E082E696E00E94E80CE4EEF5E0AE
:1045E0008491882341F09091D00095FFFCCF809377
:1045F000D6003196F5CF81E00E94275F0E943B6E86
:1046000020915D0230915E0240915F025091600204
:104610000E949C6DAB01BC0122E030E082E696E096
:104620000E94E80CE1EEF5E08491882341F090913E
:10463000D00095FFFCCF8093D6003196F5CF82E075
:104640000E94275F0E943B6E2091610230916202BE
:1046500040916302509164020E949C6DAB01BC01C9
:1046600022E030E082E696E00E94E80C8091D000E3
:1046700085FFFCCF8AE08093D6000C94582B909154
:10468000D00095FFFCCF8093D600319684918111A4
:10469000F6CF009903C0E9EBF2E009C0E3ECF2E0E9
:1046A00006C09091D00095FFFCCF8093D6008191F9
:1046B0008111F7CFE5EBF4E08191882339F09091F7
:1046C000D00095FFFCCF8093D600F6CFE1EDF5E06A
:1046D0008491882341F09091D00095FFFCCF809386
:1046E000D6003196F5CF049903C0E9EBF2E009C09A
:1046F000E3ECF2E006C09091D00095FFFCCF8093F0
:10470000D60081918111F7CFE5EBF4E08191882308
:1047100039F09091D00095FFFCCF8093D600F6CF72
:10472000E9ECF5E08491882341F09091D00095FF69
:10473000FCCF8093D6003196F5CF079903C0E9EB03
:10474000F2E009C0E3ECF2E006C09091D00095FFE2
:10475000FCCF8093D60081918111F7CFE5EBF4E097
:104760008191882339F09091D00095FFFCCF809300
:10477000D600F6CF8091D00085FFFCCF8AE08093F1
:10478000D60096C70BED12E029E4E22E22E0F22ECD
:10479000F80181918F010E949E0D882351F00E94A3
:1047A000840D0E94096ED7016D937D938D939C9328
:1047B0001397B4E0EB0EF11CE2E00F3D1E0741F74A
:1047C0000E94BB5675C70BED12E099E6E92E92E008
:1047D000F92ED8018D918D010E949E0D882339F00C
:1047E0000E94840DF7016083718382839383F4E0D8
:1047F000EF0EF11C22E00F3D120759F759C783E570
:104800000E949E0D882351F00E94840D6093450202
:1048100070934602809347029093480284E50E9479
:104820009E0D882309F444C70E94840D60934102C1
:1048300070934202809343029093440239C783E508
:104840000E949E0D882351F00E94840D60939D1557
:1048500070939E1580939F159093A01584E50E94F8
:104860009E0D882351F00E94840D609399157093DA
:104870009A1580939B1590939C1582E40E949E0D3F
:10488000882361F00E94840D0E94096E6093790272
:1048900070937A0280937B0290937C0288E50E9459
:1048A0009E0D882351F00E94840D60933D02709309
:1048B0003E0280933F02909340028AE50E949E0D43
:1048C000882351F00E94840D6093390270933A025C
:1048D00080933B0290933C0285E40E949E0D8823C6
:1048E00009F4E6C60E94840D609335027093360287
:1048F0008093370290933802DBC6F4E0EF0EF11C90
:1049000022E00E3D120709F4D3C6D8018D918D0126
:104910000E949E0D882389F30E94840DF701608315
:10492000718382839383E9CF0E94BA0D8111C0C63F
:1049300088E50E949E0D882329F10091FF0610E072
:104940000E94840D2091590230915A0240915B02DD
:1049500050915C020E94BC700E948C70F801EE0FB6
:10496000FF1FEE0FFF1FE65AF54F9B01AC01882792
:104970009927DC01821B930BA40BB50B80839183D9
:10498000A283B38389E50E949E0D882329F10091BB
:10499000FF0610E00E94840D20915D0230915E02BE
:1049A00040915F02509160020E94BC700E948C7026
:1049B000F801EE0FFF1FEE0FFF1FEE59F54F9B01A1
:1049C000AC0188279927DC01821B930BA40BB50B44
:1049D00080839183A283B3838AE50E949E0D8823FE
:1049E00029F10091FF0610E00E94840D20916102E0
:1049F0003091620240916302509164020E94BC7047
:104A00000E948C70F801EE0FFF1FEE0FFF1FE6599A
:104A1000F54F9B01AC0188279927DC01821B930B82
:104A2000A40BB50B80839183A283B383E3E5FAE003
:104A30008491882341F09091D00095FFFCCF809322
:104A4000D6003196F5CFE9EBF5E08491882341F06B
:104A50009091D00095FFFCCF8093D6003196F5CF92
:104A60001092FF068091FF06823008F08AC0E5EBC5
:104A7000F4E08191882339F09091D00095FFFCCF2C
:104A80008093D600F6CFE091FF0634E0E39FF0017B
:104A90001124E65AF54F60817181828193810E94D1
:104AA0003B6E2091590230915A0240915B02509125
:104AB0005C020E949C6DAB01BC0122E030E082E60A
:104AC00096E00E94E80CE8ECF2E08191882339F04E
:104AD0009091D00095FFFCCF8093D600F6CFE09167
:104AE000FF0644E0E49FF0011124EE59F54F608188
:104AF0007181828193810E943B6E20915D02309191
:104B00005E0240915F02509160020E949C6DAB0179
:104B1000BC0122E030E082E696E00E94E80CE8EC7E
:104B2000F2E08191882339F09091D00095FFFCCF7D
:104B30008093D600F6CFE091FF0654E0E59FF001A8
:104B40001124E659F54F60817181828193810E9421
:104B50003B6E20916102309162024091630250915C
:104B600064020E949C6DAB01BC0122E030E082E651
:104B700096E00E94E80C8091FF068F5F8093FF060D
:104B800071CF8091D00085FFFCCF8AE08093D60062
:104B90008FC583E50E949E0D882309F489C50E9474
:104BA000840D0E94046E70931C0260931B0280C5EA
:104BB00083E50E949E0D882309F47AC50E94840D26
:104BC0000E94046E70931A026093190271C580E509
:104BD0000E949E0D882351F00E94840D60937716E9
:104BE000709378168093791690937A1689E40E94D0
:104BF0009E0D882309F45CC50E94840D60937B168A
:104C000070937C1680937D1690937E1651C582E535
:104C10000E949E0D882351F00E94840D60936F16B0
:104C200070937016809371169093721681E40E94AF
:104C30009E0D882351F00E94840D6093731670932B
:104C40007416809375169093761686E50E949E0DD5
:104C5000882309F42DC50E94840D60936716709314
:104C600068168093691690936A1622C50E94BA0D41
:104C700081111EC582E50E949E0D882309F45BC048
:104C80000E94840D6B017C010091FF068091351616
:104C9000081708F050C086E1089F800111240A5CC3
:104CA000194ED8011696CD92DD92ED92FC9219978D
:104CB00020E030E0A901C701B6010E94956D811185
:104CC00003C0F801118237C0D8011A966D917D9109
:104CD0008D919C911D979B01AC010E94BC70A70116
:104CE00096010E949C6D6B017C01F80166877787B5
:104CF000808B918B20E030E04FE753E46281738139
:104D0000848195810E94BC70A70196010E949C6DD0
:104D10006B017C0120E030E04FE753E40E94EA6F32
:104D200018162CF0C701B6010E94096E01C06FEF82
:104D3000D80111966C9386E50E949E0D882309F494
:104D400059C00E94840D6B017C010091FF06809187
:104D50003516081708F04EC0B6E10B9F80011124EC
:104D60000A5C194EF801C286D386E486F5868680F1
:104D70009780A084B18420E030E0A901C501B4018E
:104D80000E94956D811104C0D80111961C9232C009
:104D9000A7019601C701B6010E94BC70A50194014C
:104DA0000E949C6D6B017C01F80166877787808B80
:104DB000918B20E030E04FE753E46281738184817E
:104DC00095810E94BC70A70196010E949C6D6B01A9
:104DD0007C0120E030E04FE753E40E94EA6F1816B0
:104DE0002CF0C701B6010E94096E01C06FEFD80117
:104DF00011966C9380E50E949E0D882309F458C497
:104E00000E94840D4B015C010091FF0680913516D4
:104E1000081708F04DC4B6E10B9F800111240A5C0D
:104E2000194EF80182829382A482B582C680D7800F
:104E3000E084F18420E030E0A901C701B6010E94BE
:104E4000956D811104C0D80111961C9231C4F801EE
:104E500062857385848595859B01AC010E94BC7039
:104E6000A70196010E949C6D6B017C01D8011E96E2
:104E70006D937D938D939C93519720E030E04FE7A5
:104E800053E4C501B4010E94BC70A70196010E94C1
:104E90009C6D6B017C0120E030E04FE753E40E9401
:104EA000EA6F18162CF0C701B6010E94096E01C006
:104EB0006FEFF8016183FCC30E94BA0D8111F8C342
:104EC00086E40E949E0D882371F00E94840DE0917B
:104ED000FF0623E4E29FF0011124EE53F94E6083B4
:104EE00071838283938380E50E949E0D882371F0F5
:104EF0000E94840DE091FF0633E4E39FF00111244A
:104F0000EE53F94E648375838683978389E40E9408
:104F10009E0D8823B9F00E94840D0091FF0643E4A2
:104F2000049F800111240E53194E2DEB37E346E008
:104F30005DE30E94BC70D80118966D937D938D93AC
:104F40009C931B9784E40E949E0D8823A9F00E94E5
:104F5000840D0091FF06B3E40B9F800111240E53D2
:104F6000194E2DEB37E346E05DE30E949C6DF8019E
:104F7000648775878687978789E60E949E0D8823B8
:104F800071F00E94840DE091FF0623E4E29FF0019E
:104F90001124EE53F94E608B718B828B938B82E5DB
:104FA0000E949E0D882371F00E94840DE091FF06FF
:104FB00033E4E39FF0011124EE53F94E658F768FB1
:104FC000878F90A383E40E949E0D882371F00E9436
:104FD000840DE091FF0643E4E49FF0011124EE53B9
:104FE000F94E648B758B868B978B85E40E949E0DA2
:104FF000882309F45DC30E94840DF090FF0653E4FA
:10500000F59E800111240E53194E2DEB37E346E037
:105010005DE30E949C6D20E030E04FE753E40E9486
:10502000BC70D80158966D937D938D939C935B973C
:105030005C96FC923DC386E40E949E0D882351F04D
:105040000E94840D60937F16709380168093811662
:105050009093821680E50E949E0D882351F00E9455
:10506000840D6093831670938416809385169093B5
:10507000861689E40E949E0D882381F00E94840D8B
:105080002DEB37E346E05DE30E94BC70609387162A
:10509000709388168093891690938A1684E40E94F0
:1050A0009E0D882381F00E94840D2DEB37E346E0AE
:1050B0005DE30E949C6D60938B1670938C168093B9
:1050C0008D1690938E1689E60E949E0D882351F0CE
:1050D0000E94840D60938F167093901680939116A2
:1050E0009093921682E50E949E0D882351F00E94B3
:1050F000840D60939C1670939D1680939E169093DA
:105100009F1683E40E949E0D882309F4D1C20E9459
:10511000840D6093931670939416809395169093D4
:105120009616C6C283E50E949E0D882319F00E9440
:10513000840D03C060E070E0CB010E94B256B8C29B
:1051400083E50E949E0D882331F00E94840D0E9409
:10515000096E7B0103C0EE24E394F12C00E010E023
:105160000E151F0509F4A4C2CE0101960E94DE3E71
:10517000811105C00E9421640E944217F5CF698108
:105180007A814AE050E082E696E00E94420C40E0DC
:1051900050E060E282E696E00E94C60B82E00E9448
:1051A000275F0E943B6E2091610230916202409124
:1051B0006302509164020E949C6DAB01BC0124E02B
:1051C00030E082E696E00E94E90C0F5F1F4FC8CFE7
:1051D00083E50E949E0D882331F00E94840D0E9479
:1051E000096E8B0102C000E117E2A12CB12CC12C89
:1051F000D12C7601212C312CEFEFFFEFA496FFAFDD
:10520000EEAFA497A016B10621F1CE0101960E943F
:10521000DE3E811105C00E9421640E944217F5CF35
:1052200089819A81C80ED91EE11CF11CA4962EAD6D
:105230003FADA4978217930720F4A4969FAF8EAF3B
:10524000A4972816390608F41C013FEFA31AB30AE5
:10525000D9CF2801612C712CC701B601A30192019D
:105260000E94B87149015A01A6961FAE1EAEA697BC
:10527000C12CD12C7601A6968EAD9FADA697801736
:10528000910731F1CE0101960E94DE3E811105C0E9
:105290000E9421640E944217F5CF89819A81A5015D
:1052A0009401281B390B41095109CA01B9010E9417
:1052B0008271C60ED71EE81EF91EA6964EAD5FADD2
:1052C000A6974F5F5F4FA6965FAF4EAFA697D3CF1F
:1052D000C701B601A30192010E94B87169017A0168
:1052E000EFEAF5E08491882341F09091D00095FF9A
:1052F000FCCF8093D6003196F5CF2AE030E0B5019F
:10530000A40182E696E00E94530CE9EAF5E084915C
:10531000882341F09091D00095FFFCCF8093D60078
:105320003196F5CF4AE050E0A4966EAD7FADA497DC
:1053300082E696E00E94470CE3EAF5E08491882338
:1053400041F09091D00095FFFCCF8093D60031962C
:10535000F5CF4AE050E0B10182E696E00E94470CAA
:10536000E8E9F5E08491882341F09091D00095FF21
:10537000FCCF8093D6003196F5CF2AE030E0B7011C
:10538000A60182E696E00E94530C92C10E94373E2D
:105390008FC18AE50E949E0D882329F00E94840D0A
:1053A0006B017C0103C0C12CD12C760186E40E94E4
:1053B0009E0D882331F00E94840D0E94046ECB0163
:1053C00002C080E090E0B701A6010E94493A0E9425
:1053D000BF5E6EC10E94435F6BC188E50E949E0D57
:1053E000882339F00E94840D0E94046E80E00E94A0
:1053F000FB5F8AE50E949E0D882339F00E94840D90
:105400000E94046E81E00E94FB5F85E40E949E0D75
:10541000882309F44DC10E94840D0E94046E82E02D
:105420000E94FB5F45C11092FE0680910C0A90918C
:105430000D0AA0910E0AB0910F0A8093100A909362
:10544000110AA093120AB093130A0E94F40D30C1FE
:1054500088E50E949E0D882351F00E94840D609380
:105460000D0270930E0280930F029093100289E553
:105470000E949E0D882351F00E94840D60931102BA
:105480007093120280931302909314028AE50E9493
:105490009E0D882309F40CC10E94840D60931502AF
:1054A00070931602809317029093180201C188E549
:1054B0000E949E0D882351F00E94840D6093720A11
:1054C0007093730A8093740A9093750A89E50E9419
:1054D0009E0D882351F00E94840D6093760A70938C
:1054E000770A8093780A9093790A8AE50E949E0D44
:1054F000882309F4DDC00E94840D60937A0A7093BA
:105500007B0A80937C0A90937D0AD2C083E50E9437
:105510009E0D882309F4CCC00E94840D11E020E088
:1055200030E0A9010E94956D811101C010E0109337
:105530009F0F112309F4BCC080E00E945F3D80E012
:105540000E942C3C81E00E945F3D81E00E942C3C47
:10555000AFC084E50E949E0D882309F465C00E94B7
:10556000840D0E94096E6093FF06623008F0A0C0AF
:1055700086E40E949E0D8823E1F00E94840D6B0159
:105580007C016093380A7093390A80933A0A9093A9
:105590003B0A20E030E0A9010E94EA6F18165CF493
:1055A000C0920802D0920902E0920A02F0920B0225
:1055B00002C080E001C081E09091FF062091590A6D
:1055C000921709F475C020E1EAE8FAE0A8E4BAE02D
:1055D00001900D922A95E1F79093590A882309F4D6
:1055E00067C08091FE06811163C020E030E040E793
:1055F00052E4609108027091090280910A02909130
:105600000B020E949C6DF9E5CF2EFAE0DF2E7B01A4
:105610008C0124E53AE040E55AE06CE47AE088E465
:105620009AE00E94AB4A44C0E3E5FAE08491882303
:1056300041F09091D00095FFFCCF8093D600319639
:10564000F5CFE5E8F5E08491882341F09091D00012
:1056500095FFFCCF8093D6003196F5CF8091090756
:1056600090910A0720E6289FF001299FF00D112450
:10567000E55FF84F8191882339F09091D00095FF34
:10568000FCCF8093D600F6CFE3E8F5E08491882341
:1056900041F09091D00095FFFCCF8093D6003196D9
:1056A000F5CF8091D00085FFFCCF8AE08093D600B3
:1056B0000E9467102CC182E090E00E948C130C9431
:1056C000A11980E090E00E948C130C94E71A81E00D
:1056D00090E00E948C130C94F21A80E00C94191F35
:1056E000F12C0C94821FE4EAF6E08491882341F0C7
:1056F0009091D00095FFFCCF8093D6003196F5CFE6
:105700008091D00085FFFCCF8AE08093D600D0CF77
:105710000E94840D6B017C0181E40E949E0D882310
:1057200099F00E94840D0E94096E162F84E40E9455
:105730009E0D882309F44FC00E94980DFE013196FA
:1057400060E070E0AF0115C0E0E8F6E084918823E6
:1057500041F09091D00095FFFCCF8093D600319618
:10576000F5CF8091D00085FFFCCF8AE08093D600F2
:105770009FCFDC012D91CD013FE9320F363030F45F
:10578000332727FD30952755310914C03FEB320FE1
:10579000363030F4332727FD3095275331090AC0BE
:1057A00030ED320F3A3008F07CC0332727FD3095BA
:1057B0002053310960FD04C02295207F208303C05F
:1057C0003081320F31936F5F7F4F6031710589F601
:1057D000E7E5F6E01CC0EFE5F6E08491882341F0B0
:1057E0009091D00095FFFCCF8093D6003196F5CFF5
:1057F0008091D00085FFFCCF8AE08093D60058CFFF
:105800009091D00095FFFCCF8093D6003196849183
:105810008111F6CF8091D00085FFFCCF8AE0809384
:10582000D600C701B601A7964FAFA797A8965FAF5E
:10583000A8970E94096E862FA7964FADA797A896A6
:105840005FADA897612F0E94DE458823A9F0EAE4A6
:10585000F6E08491882341F09091D00095FFFCCF31
:105860008093D6003196F5CF8091D00085FFFCCF94
:105870008AE08093D6001CCFE2E3F6E0849188238F
:1058800041F09091D00095FFFCCF8093D6003196E7
:10589000F5CF8091D00085FFFCCF8AE08093D600C1
:1058A00007CFEBE0F6E08491882341F09091D0009F
:1058B00095FFFCCF8093D6003196F5CF8091D00034
:1058C00085FFFCCF8AE08093D600F2CE0E94BF5EB7
:1058D00088E50E949E0D8111159A89E50E949E0D12
:1058E0008111469A8AE50E949E0D8111439A85E4B2
:1058F0000E949E0D882309F4DBCE409A9FB7F8944E
:1059000080910B01826080930B019FBFD1CEC9595A
:10591000DF4F0FB6F894DEBF0FBECDBFDF91CF9142
:105920001F910F91FF90EF90DF90CF90BF90AF90BD
:105930009F908F907F906F905F904F903F902F90AF
:1059400008958F929F92AF92BF92CF92DF92EF9283
:10595000FF928091050790910607079714F40E9423
:105960002E0E8091050790910607181619064CF423
:105970001092FA061092FB061092FC061092FD0699
:105980006DC08090231690902416A0902516B0909C
:10599000261620E030E048E452E460912916709128
:1059A0002A1680912B1690912C160E94EA6F1816D9
:1059B000E4F0C0902D16D0902E16E0902F16F090A7
:1059C000301620E030E048E452E4C501B4010E9402
:1059D000EA6F181654F020E030E048E452E4C701C2
:1059E000B6010E94EA6F1816CCF58091FA069091E4
:1059F000FB06A091FC06B091FD06892B8A2B8B2B10
:105A000059F40E94BB6A6093FA067093FB06809378
:105A1000FC069093FD0622C00E94BB6AC090FA0665
:105A2000D090FB06E090FC06F090FD066C197D0915
:105A30008E099F09603E73498440910578F020E00B
:105A40004EE16FEF80E00E94954620E04EE16FEF5F
:105A500081E00E9495468DE00E94FC11809105072F
:105A600090910607892BD9F00E944917809105076C
:105A7000909106071816190694F40197909306075B
:105A8000809305078091090790910A07019668E0C5
:105A900070E00E94A57190930A07809309070E9405
:105AA00021640E9442170E944B5780919F0F8823C8
:105AB00081F08091590A882311F0813051F4FF90D0
:105AC000EF90DF90CF90BF90AF909F908F900C940D
:105AD000433CFF90EF90DF90CF90BF90AF909F90AE
