:100000000C94DF0B0C94100C0C94100C0C94100C32
:100010000C94100C0C94100C0C94100C0C94100CF0
:100020000C94100C0C94100C0C94100C0C94100CE0
:100030000C94100C0C94100C0C94100C0C94100CD0
:100040000C94100C0C94595A0C94100C0C94100C29
:100050000C94100C0C94100C0C9409680C94006D0A
:100060000C94100C0C94100C0C94100C0C94100CA0
:100070000C94100C0C94100C0C94100C0C94100C90
:100080000C94100C0C94100C0C94100C0C94100C80
:100090000C94100C0C94100C0C94100C0C94D94271
:1000A0000C94100C0C94100C0C94100C0C94100C60
:1000B0000C94100C0C94100C0C94100C0C94100C50
:1000C0000C94100C0C94100C0C94100C0C94120C3E
:1000D0000C94100C0C94100C0C94100C0C94100C30
:1000E0000C94100C4A756E20323820323031373281
:1000F000303A30343A313300006E056E0A6E146EB9
:100100001E6E976E286E306E386E426E4C6E566E56
:10011000656E6F6E976E796E836E8D6EB86EBB6E08
:10012000AA6EAE6EB46EF26EBF6EC36EC96ECD6E49
:10013000D16ED76EDB6EDF6EF26EE56EE96EED6E40
:10014000084AD73B3BCE016E84BCBFFDC12F3D6C3E
:1001500074319ABD56833DDA3D00C77F11BED9E4A4
:10016000BB4C3E916BAAAABE000000803F05A84C84
:10017000CDB2D44EB93836A9020C50B99186880850
:100180003CA6AAAA2ABE000000803F005072696EF9
:100190007465722073746F70706564206475652077
:1001A000746F206572726F72732E204669782074A6
:1001B0006865206572726F7220616E642075736568
:1001C000204D39393920746F2072657374617274EF
:1001D0002E202854656D7065726174757265206992
:1001E000732072657365742E2053657420697420C2
:1001F00061667465722072657374617274696E678A
:100200002900504F534954494F4E5F4552524F5267
:100210003A204F72646572656420746F206D6F764A
:1002200065206F757473696465206F66206E6F72E8
:100230006D616C20766F6C756D652E00534552496B
:10024000414C5F494E5055545F54494D454F5554AC
:100250003A204E6F20636F6D6D616E64732072651E
:10026000636569766564206F7665722074696D6573
:100270002E205361666574792073687574646F7796
:100280006E005341464554595F4552524F523A20F1
:10029000536166657479206369726375697420744B
:1002A0007269676765726564004932435F434F4D09
:1002B0004D5F4552524F52004932435F48454144D9
:1002C0005F434F4D4D5F4552524F520058595F4565
:1002D0004E4453544F505F4552524F523A20456E50
:1002E0006473746F70207374696C6C2070726573C2
:1002F000736564206166746572206261636B696E08
:1003000067206F66662E20456E6473746F7020736D
:100310007475636B3F0058595F454E4453544F50BA
:100320005F4552524F523A20456E6473746F70208D
:100330006E6F742070726573736564206166746596
:100340007220686F6D696E6720646F776E2E20452E
:100350006E6473746F702062726F6B656E3F005ACB
:100360005F454E4453544F505F4552524F523A20CE
:10037000456E6473746F70207374696C6C20707256
:100380006573736564206166746572206261636B76
:10039000696E67206F66662E20456E6473746F7099
:1003A00020737475636B3F005A5F454E4453544F3E
:1003B000505F4552524F523A20456E6473746F70CD
:1003C000206E6F742070726573736564206166744B
:1003D000657220686F6D696E6720646F776E2E207E
:1003E000456E6473746F702062726F6B656E3F0050
:1003F0004845415445525F4552524F523A310048A8
:1004000045415445525F4552524F523A30004245A1
:10041000445F4D415854454D505F4552524F523AFA
:100420002054656D706572617475726520686561D0
:1004300074656420626564207377697463686564B9
:10044000206F66662E204D415854454D50207472E1
:1004500069676765726564202121004558545255CB
:100460004445525F4D494E54454D505F4552524FA1
:10047000523A313A20457874727564657220737708
:10048000697463686564206F66662E204D494E541A
:10049000454D50207472696767657265642021005C
:1004A00045585452554445525F4D494E54454D5060
:1004B0005F4552524F523A303A2045787472756413
:1004C0006572207377697463686564206F66662E51
:1004D000204D494E54454D502074726967676572CE
:1004E000656420210045585452554445525F4D41A2
:1004F0005854454D505F4552524F523A313A20457B
:100500007874727564657220737769746368656462
:10051000206F66662E204D415854454D5020747210
:1005200069676765726564202100455854525544D7
:1005300045525F4D415854454D505F4552524F52C0
:100540003A303A2045787472756465722073776921
:100550007463686564206F66662E204D415854456B
:100560004D502074726967676572656420210020B0
:1005700050006F6B204E002200556E6B6E6F776ED1
:1005800020636F6D6D616E643A202200204500206B
:100590005A0020590058005374646465765E323AFC
:1005A00020004D61783A20004D696E3A2000417676
:1005B00065726167653A2000486F74656E64206FEC
:1005C0006666736574733A007A5F6D61783A2000ED
:1005D000795F6D61783A2000785F6D696E3A20002E
:1005E000204255494C443A224A756E203238203216
:1005F0003031372032303A30343A31332200205013
:1006000043425F49443A00204D414348494E455FCB
:10061000545950453A554D33005A3A00593A002042
:10062000636F756E7420583A00453A005A3A005983
:100630003A00583A002042002054002050006F6BCE
:10064000204E005741524E494E473A204E4F2028E7
:100650004F52204E4F5420454E4F55474829204475
:1006600041544120464F554E44004552524F523A54
:1006700020444154415F4E4F5420575249545445F1
:100680004E00444154415F5752495454454E00571F
:10069000524954494E47005741524E494E473A201D
:1006A0004E4F204441544120504152414D45544504
:1006B0005220464F554E44005741524E494E473AFC
:1006C000204E4F2041444452455353205041524103
:1006D0004D4554455220464F554E44005741524EC9
:1006E000494E473A204E4F20544F4F4C20504152D4
:1006F000414D4554455220464F554E44004E4F2DD6
:10070000484F54454E4400444154413A203078000B
:100710005041474520494E444558204F5554204F9D
:10072000462052414E4745004E4F2D484F54454EAE
:10073000440053455249414C3A005072696E746509
:10074000722073746F707065642064756520746FB7
:10075000206572726F72732E204669782074686506
:10076000206572726F7220616E6420757365204D12
:1007700039393920746F20726573746172742E2058
:100780002854656D70657261747572652069732097
:1007900072657365742E20536574206974206166D8
:1007A0007465722072657374617274696E67290072
:1007B0007374617274004255494C443A4A756E2014
:1007C000323820323031372032303A30343A313317
:1007D0000000000000030007000C0013001C0026AE
:1007E0000031003F004E005E00700084009900B0B0
:1007F00000C800E200FE001B013A015B017D01A17F
:1008000001C601EE01170241026E029C02CC02FEFB
:1008100002310367039E03D70312044E048D04CDF7
:1008200004100554059A05E2052D067906C7061839
:10083000076A07BF0715086E08C90826098609E771
:10084000094B0AB20A1A0B850BF20B620CD40C4945
:100850000DC00D3A0EB60E350FB60F3A10C1104B43
:1008600011D7116612F8128C132414BE145B15FCF8
:10087000159F164517EF179B184B19FE19B41A6DE3
:100880001B2A1CEA1CAD1D731E3D1F0B20DC20B073
:100890002188226423432426250C26F726E527D623
:1008A00028CC29C52AC32BC42CC92DD22EDF2FF06A
:1008B0003005321E333B345C358136AA37D83809CF
:1008C0003A3F3B793CB73DFA3E40408B41DA422EFD
:1008D000448545E1464148A5490D4B7A4CEB4D60B6
:1008E0004FD9505752D8535E55E7567558075A9D01
:1008F0005B365DD45E76601B62C46371652267D629
:10090000688E6A496C086ECA6F8F7158732375F2CE
:1009100076C478987A707C497E26800582E683CA00
:1009200085B0879789818B6C8D598F489138932832
:10093000951A970D99019BF59CEA9EDFA0D4A2C958
:10094000A4BEA6B2A8A5AA98AC8AAE7BB06BB258DA
:10095000B445B62FB817BAFDBBE0BDC1BF9EC17983
:10096000C350C523C7F3C8BFCA87CC4ACE08D0C27C
:10097000D177D326D5D0D675D813DAABDB3DDDC918
:10098000DE4EE0CCE142E3B2E41AE67AE7D2E823B5
:10099000EA6BEBAAECE1ED0FEF35F051F163F26D8C
:1009A000F36CF462F54EF631F708F8D6F899F9527F
:1009B000FA00FBA3FB3CFCC9FC4CFDC3FD2FFE91E0
:1009C000FEE6FE31FF70FFA4FFCCFFE8FFFAFFFF59
:1009D000FFFF01010000E0400000E0400000E040B7
:1009E0006563686F3A000A4572726F723A006F6B06
:1009F00000526573656E643A2000526563656976DE
:100A00006564207061636B657420636F756C64202E
:100A10006E6F742062652068616E646C6564202866
:100A20006275666665722066756C6C292C20706133
:100A3000636B657420776974682073657175656E82
:100A40006365206E756D6265723A20004368656368
:100A50006B73756D206D69736D6174636820666F6B
:100A600072207061636B65742077697468207365A8
:100A70007175656E6365206E756D6265723A2000F2
:100A80005061796C6F61642062797465206E6F7457
:100A900020696E2061636365707461626C652028F3
:100AA0004153434949292072616E67652061742072
:100AB000706F736974696F6E2023005061796C6F79
:100AC00061642073697A6520697320746F6F206296
:100AD000696720666F72207061636B657420776947
:100AE00074682073657175656E6365206E756D62DF
:100AF00065723A200053657175656E6365206E7589
:100B00006D62657220697320756E657870656374B7
:100B10006564202872656365697665642C20657854
:100B2000706563746564293A200050726F746F4574
:100B300072723A0000002110422063308440A550B8
:100B4000C660E770088129914AA16BB18CC1ADD113
:100B5000CEE1EFF13112100273325222B5529442BB
:100B6000F772D662399318837BB35AA3BDD39CC363
:100B7000FFF3DEE36224433420040114E664C77407
:100B8000A44485546AA54BB528850995EEE5CFF5B3
:100B9000ACC58DD55336722611163006D776F6665B
:100BA0009556B4465BB77AA719973887DFF7FEE703
:100BB0009DD7BCC7C448E5588668A7784008611827
:100BC00002282338CCC9EDD98EE9AFF94889699953
:100BD0000AA92BB9F55AD44AB77A966A711A500AFB
:100BE000333A122AFDDBDCCBBFFB9EEB799B588BA3
:100BF0003BBB1AABA66C877CE44CC55C222C033C47
:100C0000600C411CAEED8FFDECCDCDDD2AAD0BBDF2
:100C1000688D499D977EB66ED55EF44E133E322E9A
:100C2000511E700E9FFFBEEFDDDFFCCF1BBF3AAF42
:100C3000599F788F8891A981CAB1EBA10CD12DC1A0
:100C40004EF16FE18010A100C230E3200450254036
:100C500046706760B9839893FBA3DAB33DC31CD396
:100C60007FE35EF3B1029012F322D2323542145286
:100C700077625672EAB5CBA5A89589856EF54FE5E2
:100C80002CD50DC5E234C324A014810466744764D6
:100C900024540544DBA7FAB79987B8975FE77EF736
:100CA0001DC73CD7D326F2369106B0165766767626
:100CB000154634564CD96DC90EF92FE9C899E98902
:100CC0008AB9ABA94458654806782768C018E10876
:100CD0008238A3287DCB5CDB3FEB1EFBF98BD89BD6
:100CE000BBAB9ABB754A545A376A167AF10AD01AC6
:100CF000B32A923A2EFD0FED6CDD4DCDAABD8BAD22
:100D0000E89DC98D267C076C645C454CA23C832C15
:100D1000E01CC10C1FEF3EFF5DCF7CDF9BAFBABF75
:100D2000D98FF89F176E367E554E745E932EB23E65
:100D3000D10EF01E5741524E494E473A46494C415A
:100D40004D454E545F464C4F573A004C4F473A4939
:100D500032435F434F4D4D5F4552524F523A002050
:100D6000746F6F206C6F6E6720657874727573692D
:100D70006F6E2070726576656E7465640020636FB7
:100D80006C6420657874727573696F6E207072651B
:100D900076656E746564006563686F3A00537465C8
:100DA000707261746520746F6F20686967683A209B
:100DB00000205A3A0020593A0020583A00656E64E3
:100DC00073746F7073206869743A200024F4D4300F
:100DD00050C38E20C2A24017828B7011127A910DDF
:100DE000816CD90AA861E108C758660761514306BA
:100DF0001E4B5D05C145A7041A411104093D980326
:100E0000713931034036DB0265339102D43054022C
:100E1000802E1D02632CEE01752AC501B028A001A9
:100E2000102781018F2564012B244B01E02234011E
:100E3000AC211F018D200D01801FFC00841EED00E0
:100E4000971DDF00B81CD200E61BC600201BBC00AB
:100E5000641AB200B219A8000A19A0006A18990011
:100E6000D117910040178B00B516840031167E0013
:100E7000B31579003A157300C7146F0058146A004F
:100E8000EE1366008813630025135E00C7125B0033
:100E90006C12570015125400C111510070114F000F
:100EA00021114B00D61049008D1047004610440018
:100EB00002104200C00F4000800F3E00420F3C0075
:100EC000060F3B00CB0E3800930E37005C0E35004A
:100ED000270E3400F30D3200C10D3100900D3000AB
:100EE000600D2E00320D2D00050D2C00D90C2B00AD
:100EF000AE0C2900850C29005C0C2700350C27005E
:100F00000E0C2600E80B2400C40B2400A00B2300C9
:100F10007D0B23005A0B2100390B2100180B2000F8
:100F2000F80A1F00D90A1E00BB0A1E009D0A1D00F8
:100F3000800A1D00630A1C00470A1B002C0A1B00C4
:100F4000110A1A00F7091A00DD091900C40919006D
:100F5000AB091900920917007B09180063091700F3
:100F60004C09160036091600200916000A0915005A
:100F7000F5081500E0081400CC081400B8081400A7
:100F8000A4081400900813007D0812006B081300D9
:100F900058081200460812003408110023081100F6
:100FA0001208110001081100F0071000E0071000FE
:100FB000D0071000C0071000B0070F00A1071000F5
:100FC00091070E0083070F0074070F0065070E00DE
:100FD00057070E0049070E003B070D002E070E00B5
:100FE00020070D0013070D0006070D00F9060C0081
:100FF000ED060D00E0060C00D4060C00C8060C003F
:10100000BC060C00B0060C00A4060B0099060C00F0
:101010008D060B0082060B0077060B006C060B009A
:1010200061060A0057060B004C060A0042060A0039
:1010300038060A002E060A0024060A001A060A00CC
:101040001006090007060A00FD050900F40509005D
:10105000EB050900E2050900D9050900D0050900E2
:10106000C7050900BE050900B5050800AD05080063
:10107000A50509009C050800940508008C050800DA
:10108000840508007C050800740508006C0507004D
:10109000650508005D050700560508004E050700B8
:1010A000470507004005080038050700310507001F
:1010B0002A050700230507001C0506001605070082
:1010C0000F0507000805060002050700FB040600DF
:1010D000F5040700EE040600E8040600E204070039
:1010E000DB040600D5040600CF040600C904060090
:1010F000C3040600BD040600B7040600B1040500E1
:10110000AC040600A6040600A00405009B0406002B
:1011100095040500900406008A0405008504050076
:10112000800406007A0405007504050070040500BB
:101130006B04050066040500610405005C040500FD
:1011400057040500520405004D040500480405003D
:10115000430405003E0404003A040500350405007C
:10116000300404002C0405002704040023040500B7
:101170001E0404001A0404001604050011040400EF
:101180000D04040009040500040404000004040024
:10119000FC030400F8030400F4030400F00304005B
:1011A000EC030400E8030400E4030400E00304008B
:1011B000DC030400D8030400D4030400D0030400BB
:1011C000CC030400C8030300C503030024F404D9BE
:1011D000201BC40C5C0E9804C4095F0265077101F2
:1011E000F405F900FB04B30048048700C10369005B
:1011F0005803550003034500BE023A008402310043
:1012000053022A002902250004022000E4011C00E8
:10121000C8011900AF0117009801140084011300E0
:10122000710110006101100051010E0043010D0019
:1012300036010B002B010B0020010B0015010900EA
:101240000C01090003010800FB000800F30008007E
:10125000EB000700E4000600DE000600D8000600F0
:10126000D2000600CC000500C7000500C200050042
:10127000BD000400B9000400B5000400B100040082
:10128000AD000400A9000400A5000300A2000300B3
:101290009F0004009B0003009800030095000200DB
:1012A00093000300900003008D0002008B000300F8
:1012B0008800020086000200840003008100020012
:1012C0007F0002007D0002007B0002007900020026
:1012D0007700010076000200740002007200010035
:1012E000710002006F0002006D0001006C0002003E
:1012F0006A00010069000200670001006600010049
:10130000650001006400020062000100610001004C
:10131000600001005F0002005D0001005C00010050
:101320005B0001005A000100590001005800010053
:101330005700010056000100550001005400010053
:101340005300000053000100520001005100010051
:10135000500001004F0001004E0000004E0001004F
:101360004D0001004C0001004B0000004B0001004B
:101370004A00010049000100480000004800010047
:101380004700010046000000460001004500000043
:10139000450001004400010043000000430001003B
:1013A0004200000042000100410000004100010035
:1013B000400001003F0000003F0001003E0000002F
:1013C0003E0001003D0000003D0001003C00000027
:1013D0003C0000003C0001003B0000003B0001001D
:1013E0003A0000003A000100390000003900010015
:1013F000380000003800000038000100370000000D
:101400003700010036000000360000003600010001
:1014100035000000350000003500010034000000F8
:1014200034000000340001003300000033000000ED
:1014300033000100320000003200000032000100E1
:1014400031000000310000003100010030000000D8
:1014500030000000300001002F0000002F000000CD
:101460002F0000002F0001002E0000002E000000C1
:101470002E0001002D0000002D0000002D000000B6
:101480002D0001002C0000002C0000002C000000AA
:101490002C0001002B0000002B0000002B0000009E
:1014A0002B0001002A0000002A0000002A00000092
:1014B0002A00010029000000290000002900000086
:1014C0002900000029000100280000002800000079
:1014D000280000002800000028000100270000006C
:1014E000270000002700000027000000270001005F
:1014F0002600000026000000260000002600000054
:101500002600010025000000250000002500000045
:101510002500000025000000250001002400000037
:10152000240000002400000024000000240001002A
:10153000230000002300000023000000230000001F
:10154000230000002300000023000100220000000F
:101550002200000022000000220000002200000003
:1015600022000100210000002100000021000000F5
:1015700021000000210000002100000021000100E6
:1015800020000000200000002000000020000000DB
:1015900020000000200000002000000020000100CA
:1015A0001F0000001F0000001F0000001F000000BF
:1015B0001F0000001F0000001F0001001E000000AF
:1015C0001E0000001E0000001E0000006563686F22
:1015D0003A00D8BBCEFF78C7000090D2320038DD89
:1015E000640068E7960028F1C80088FAFA008003D2
:1015F0002C01200C5E0160149001501CC201F023EC
:10160000F401A03FBC020000000018070100A80779
:10161000140030082800B8083C0038095000C00900
:101620006400480A7800C80A8C00480BA000C80B68
:10163000B400480CC800C80CDC00400DF000C00D20
:101640000401380E1801B00E2C01280F4001A00F24
:1016500054011810680188107C01001190013013AA
:10166000F401481558024017BC0228192003F01A4B
:101670008403A81CE803401E4C0400000A0B020966
:101680000C0D0E080703040100000000000000001C
:10169000000000000000000000000000000000004A
:1016A0000000000000001211100000000000000007
:1016B000000000000000000000000000000000002A
:1016C0000102102020080810204010204080020154
:1016D0000201080402010102040810204080804039
:1016E0002010080402018004020180402010080438
:1016F00002010804020101020408102040800102D6
:10170000040810204080050505050705080808089D
:10171000020202020A0A0808040404040101010189
:101720000101010103030303030303030407070784
:101730000C0C0C0C0C0C0C0C020202020606060629
:10174000060606060B0B0B0B0B0B0B0B0000220007
:10175000250028002B002E0031003400020100007B
:10176000050108010B0100002100240027002A00C8
:101770002D003000330001010000040107010A01BF
:101780004E414E494E495459494E46CDCCCC3D0A66
:10179000D7233C17B7D13877CC2B329595E6241F49
:1017A000B14F0A000020410000C84200401C462002
:1017B000BCBE4CCA1B0E5AAEC59D7400B269112442
:1017C0001FBECFEFD1E2DEBFCDBF00E00CBF16E001
:1017D000A0E0B2E0E0E2F2EF00E00BBF02C0079051
:1017E0000D92A035B107D9F727E1A0E5B6E001C019
:1017F0001D92AA3AB207E1F717E1CEEBD7E100E07C
:1018000006C022970109FE010BBF0E94D975CC3B8F
:10181000D10780E00807A9F70E94626F0C940E7947
:101820000C9400001F920F920FB60F9211240BB66A
:101830000F922F938F939F93EF93FF939091D600E6
:101840008091D1068F5F8F772091D206821741F069
:10185000E091D106F0E0EF5AF94F90838093D106E2
:10186000FF91EF919F918F912F910F900BBE0F9051
:101870000FBE0F901F9018959A01AB0182E08093E4
:10188000D00060E079E08DE390E00E948E742150FA
:10189000310941095109CA01B90122E030E040E0B3
:1018A00050E00E948E74832F99278093D500209357
:1018B000D400E1EDF0E080818061808380818860E8
:1018C000808380818068808308959091D106809183
:1018D000D206981771F0E091D206F0E0EF5AF94F76
:1018E00080819091D2069F5F9F779093D20690E07F
:1018F00008958FEF9FEF08958091D2068093D106CF
:1019000008954F925F926F927F928F929F92AF92C3
:10191000BF92CF92DF92EF92FF920F931F93CF93DC
:10192000DF93CDB7DEB7A0970FB6F894DEBF0FBE3A
:10193000CDBF5C014115510561057105E9F420E059
:1019400030E040E350E060E070E0A0960FB6F8941D
:10195000DEBF0FBECDBFDF91CF911F910F91FF90E2
:10196000EF90DF90CF90BF90AF909F908F907F903F
:101970006F905F904F905BC08E010F5F1F4FC12C27
:10198000D12C76014801422E512C612C712C8FEF05
:10199000C81AD80AE80AF80ACB01BA01A3019201D1
:1019A0000E946C74CA01F80161938F01A901BC0106
:1019B000411551056105710551F7F1E0CF1AD108C4
:1019C000E108F108F401EC0DFD1D80818A3010F46E
:1019D00040E301C047E3480F552747FD5095652F69
:1019E000752F20E030E0C50122D081E0C81AD1086F
:1019F000E108F108EFEFCE16DE06EE06FE0611F75F
:101A0000A0960FB6F894DEBF0FBECDBFDF91CF9189
:101A10001F910F91FF90EF90DF90CF90BF90AF900C
:101A20009F908F907F906F905F904F9008952115B9
:101A3000310539F48091D00085FFFCCF4093D6006A
:101A400008952A30310509F447C05BCF9A01462F2B
:101A5000552747FD5095652F752FE9CFCF93DF931D
:101A6000EC0120E030E04DE050E060E070E0DFDFCE
:101A700020E030E04AE050E060E070E0CE01DF912D
:101A8000CF91D5CFFB012191BF01222339F03091B5
:101A9000D00035FFFCCF2093D600F4CFDFCF9A01E2
:101AA000AB01662757FD6095762FC1CFCF93DF93AB
:101AB000EC019A01AB01662757FD6095762FB7DFE1
:101AC000CE01DF91CF91CACFCF93DF93EC01AFDF8F
:101AD000CE01DF91CF91C2CFCF92DF92EF92FF92F2
:101AE000CF93DF93EC016A017B0177FF0FC020E009
:101AF00030E04DE250E060E070E099DFF094E09477
:101B0000D094C094C11CD11CE11CF11C2AE0B70187
:101B1000A601CE01DF91CF91FF90EF90DF90CF90A3
:101B2000F0CE2115310539F48091D00085FFFCCF2E
:101B30004093D6000895E5CE9A01462F50E060E02C
:101B400070E0EFCF9A01AB0160E070E0EACFCF9395
:101B5000DF93EC019A01AB0160E070E0E2DFCE01BF
:101B6000DF91CF917BCFCF93DF93EC01DADFCE0112
:101B7000DF91CF9173CF8F929F92AF92BF92CF920E
:101B8000DF92EF92FF921F93CF93DF93EC016A01F4
:101B90007B01122F20E030E0A901C701B6010E94AD
:101BA000497087FF0CC020E030E04DE250E060E07B
:101BB00070E0CE013CDFF7FAF094F7F8F094B12C26
:101BC00060E070E080E09FE3B11641F020E030E09B
:101BD00040E251E40E945070B394F6CF9B01AC01F7
:101BE000C701B6010E94706F6B017C010E94BD703D
:101BF0004B015C010E94ED709B01AC01C701B60175
:101C00000E946F6F6B017C012AE0B501A401CE0137
:101C100078DE112361F0E6E9F2E08191882339F062
:101C20009091D00095FFFCCF8093D600F6CF112382
:101C300019F120E030E040E251E4C701B6010E9412
:101C400070736B017C010E94B8704B01AA2497FC51
:101C5000A094BA2CB501A401CE013EDFC501B401A8
:101C60000E94EF709B01AC01C701B6010E946F6F2B
:101C70006B017C011150DBCFDF91CF911F91FF9061
:101C8000EF90DF90CF90BF90AF909F908F9008958E
:101C900072CFCF93DF93EC016EDFCE01DF91CF9156
:101CA000DDCECF93DF93FC01EF52F64FE491880F26
:101CB000991F880F991FEC01C85BD54FE7FF04C03F
:101CC000FC01E05DF54F03C0FC01E35FFD4FDC016B
:101CD000A45CB54F2D913D914D915C9160817181D6
:101CE000828193810E94706F688379838A839B834A
:101CF000DF91CF910895FC012491222341F030918E
:101D0000D00035FFFCCF2093D6000196F4CF22E01F
:101D100030E080E596E0BCCF0A9A129808950A9ABE
:101D2000129880915E0A90915F0A039709F4169ABF
:101D300008958EE00E94B86D8E3D91052CF08F3095
:101D400021E0920744F00AC02DED30E0281B390B4A
:101D5000223331051CF481E090E024C0803C21E076
:101D600092072CF0813F21E0920744F00AC02FEB4C
:101D700031E0281B390B223331051CF482E090E05E
:101D800011C0873722E0920724F0883A924044F04D
:101D90000EC026E732E0281B390B223331053CF414
:101DA00083E090E090935F0A80935E0A089510921A
:101DB0005F0A10925E0A08958091EC069091ED06FC
:101DC00060E070E001960C9437768091EC0690917B
:101DD000ED064AE050E060E070E001960C949F77D9
:101DE000682F772767FD70958091F00620E6829F27
:101DF000C00111248F50994F0E9400799093ED06F5
:101E00008093EC0621E0892B09F420E0822F0895CD
:101E1000CF92DF92EF92FF920F931F93CF93DF93B6
:101E2000CDB7DEB78091EE06883008F04FC00E8542
:101E3000E090EF06CE2CD12C80E6E89E70011124B4
:101E400010E0A801BE01615F7F4FC7018F50994F1D
:101E50000E94F078F701E00FF11FEF50F94F108268
:101E6000F601EF50F64F8D85808387E4B9DF882334
:101E7000F1F0ABDF6430710581059105C0F480910C
:101E8000EA068823A1F0EAE3F7E08491882341F091
:101E90009091D00095FFFCCF8093D6003196F5CF7E
:101EA0008091D00085FFFCCF8AE08093D60080919E
:101EB000EF0690E00196877099278093EF06809156
:101EC000EE068F5F8093EE0681E001C080E0DF9137
:101ED000CF911F910F91FF90EF90DF90CF900895D9
:101EE0008091170A8093EB0684E57ADF811102C0A6
:101EF00080E0089561DF0E94BD706093EB06623060
:101F0000B8F3E0EEF9E08491882341F09091D0009D
:101F100095FFFCCF8093D6003196F5CFE8E9F2E04B
:101F20008191882339F09091D00095FFFCCF809368
:101F3000D600F6CF40E050E06091EB0680E596E0F9
:101F4000FBDD8091D00085FFFCCF8AE08093D60036
:101F500081E00895E1DE40E950ED63E070E080E566
:101F600096E08ADCE0EEF9E08491882341F09091DC
:101F7000D00095FFFCCF8093D6003196F5CFE6EBED
:101F8000F7E08491882341F09091D00095FFFCCF39
:101F90008093D6003196F5CF8091D00085FFFCCF9D
:101FA0008AE08093D600C5DE0E94F26C0E949D41BB
:101FB0000E94403E0E9483480E943E650E946559EF
:101FC0000E94EA620E9482400E94C8430E947D44AF
:101FD000E0EBF7E08491882341F09091D00095FFE9
:101FE000FCCF8093D6003196F5CF8091D00085FF4D
:101FF000FCCF8AE08093D6000895CF92DF92EF92D3
:10200000FF920F931F932091060A3091070A409187
:10201000080A5091090A6091480A7091490A809112
:102020004A0A90914B0A0E944970811179C020910F
:102030000A0A30910B0A40910C0A50910D0A6091E6
:102040004C0A70914D0A80914E0A90914F0A0E945D
:102050004970811165C020E030E040E752E46091B2
:1020600008027091090280910A0290910B020E946D
:10207000507037E1C32E3AE0D32E7B018C0122E170
:102080003AE04EE05AE06AE07AE086E09AE00E94A8
:102090000D4D8091060A9091070AA091080AB0910F
:1020A000090A8093480A9093490AA0934A0AB09378
:1020B0004B0A80910A0A90910B0AA0910C0AB091E8
:1020C0000D0A80934C0A90934D0AA0934E0AB09348
:1020D0004F0A80910E0A90910F0AA091100AB091B8
:1020E000110A8093500A9093510AA093520AB09318
:1020F000530A8091120A9091130AA091140AB09188
:10210000150A8093540A9093550AA093560AB093E7
:10211000570A1F910F91FF90EF90DF90CF90089595
:1021200060911B0270911C02882777FD8095982F83
:102130000E94EF70209108023091090240910A023A
:1021400050910B020E94707320E030E040E752E4AF
:102150000E94507020E030E048EC52E488CFAF920B
:10216000BF92CF92DF92EF92FF920F931F93CF9384
:10217000DF93D82F2091FE093091FF094091000A8A
:102180005091010A6091FA097091FB098091FC0954
:102190009091FD090E94AB72C62F172F082FF92EC0
:1021A00060911B0270911C02882777FD8095982F03
:1021B0000E94EF70209108023091090240910A02BA
:1021C00050910B020E94707320E030E040E752E42F
:1021D0000E94507020E030E048EC52E40E945070C1
:1021E0002091170A2F93DF93FF920F931F93CF93A2
:1021F0005B016C0142E0E42E01E020E04AEF59E08F
:1022000066E07AE088E49AE00E94CE448091060A73
:102210009091070AA091080AB091090A8093480A90
:102220009093490AA0934A0AB0934B0A80910A0AF4
:1022300090910B0AA0910C0AB0910D0A80934C0A60
:1022400090934D0AA0934E0AB0934F0A80910E0AC4
:1022500090910F0AA091100AB091110A8093500A30
:102260009093510AA093520AB093530A8091120A94
:102270009091130AA091140AB091150A8093540A00
:102280009093550AA093560AB093570A0F900F9057
:102290000F900F900F900F90DF91CF911F910F91A2
:1022A000FF90EF90DF90CF90BF90AF900895CF93C5
:1022B000DF931F92CDB7DEB789830E941466909199
:1022C000EA06898191116FC18093EA068C3009F486
:1022D0006AC1E6EEF9E09491992341F02091D00093
:1022E00025FFFCCF9093D6003196F5CF883009F4C6
:1022F000E0C0B8F4843009F488C058F4823009F49E
:1023000052C008F074C0813009F039C1EAE2F5E04A
:1023100030C0863009F4A9C008F0B9C0E8EAF3E09B
:102320009CC08D3009F40AC158F48A3009F4E5C024
:1023300008F4D1C08B3009F022C1E2E8F2E0F6C027
:102340008333F9F030F48E3009F019C1E2E0F2E0A5
:102350000EC1843309F439C0863309F010C1E0EFAF
:10236000F3E06CC09091D00095FFFCCF8093D60035
:10237000319684918111F6CF8091D00085FFFCCFFA
:102380000FC1E5EEF4E08491882341F09091D000F4
:1023900095FFFCCF8093D6003196F5CF8091D00089
:1023A00085FFFCCFFDC0E0EAF4E08491882341F092
:1023B0009091D00095FFFCCF8093D6003196F5CF59
:1023C0008091D00085FFFCCFEBC0EBE5F4E0849179
:1023D000882341F09091D00095FFFCCF8093D600E8
:1023E0003196F5CF8091D00085FFFCCFD9C0EEE0CB
:1023F000F4E08491882309F4D6C09091D00095FF31
:10240000FCCF8093D6003196F4CFEFEFF3E08491C8
:10241000882341F09091D00095FFFCCF8093D600A7
:102420003196F5CF8091D00085FFFCCFB9C0909157
:10243000D00095FFFCCF8093D60031968491811116
:10244000F6CF8091D00085FFFCCFAAC09091D0003C
:1024500095FFFCCF8093D600319684918111F6CF01
:102460008091D00085FFFCCF9BC0EFE5F3E0849125
:10247000882341F09091D00095FFFCCF8093D60047
:102480003196F5CF8091D00085FFFCCF89C0E6E181
:10249000F3E08491882341F09091D00095FFFCCF28
:1024A0008093D6003196F5CF8091D00085FFFCCF88
:1024B00077C0ECECF2E08491882341F09091D00059
:1024C00095FFFCCF8093D6003196F5CF8091D00058
:1024D00085FFFCCF65C0E8EBF2E08491882341F0F2
:1024E0009091D00095FFFCCF8093D6003196F5CF28
:1024F0008091D00085FFFCCF53C0E9EAF2E08491DF
:10250000882341F09091D00095FFFCCF8093D600B6
:102510003196F5CF8091D00085FFFCCF41C09091DE
:10252000D00095FFFCCF8093D60031968491811125
:10253000F6CF8091D00085FFFCCF32C0ECE3F2E013
:102540008491882341F09091D00095FFFCCF809337
:10255000D6003196F5CF8091D00085FFFCCF20C00A
:102560009091D00095FFFCCF8093D6003196849156
:102570008111F6CF8091D00085FFFCCF11C0ECE82F
:10258000F1E08491882341F09091D00095FFFCCF39
:102590008093D6003196F5CF8091D00085FFFCCF97
:1025A0008AE08093D6000F90DF91CF9108952F920B
:1025B0003F924F925F926F927F928F929F92AF92D3
:1025C000BF92CF92DF92EF92FF920F931F93CF9320
:1025D000DF93EC01FC01EE0FFF1FEE0FFF1FE85B26
:1025E000F54F108211821282138224E53AE040E511
:1025F0005AE06CE47AE088E49AE00E946B57CE01DE
:102600008F52964F4C01FC0174905E01AA0CBB1CCA
:10261000AA0CBB1C85010A5F154FF501E35FFD4F56
:10262000D501A05DB54F2D913D914D915C9160819B
:102630007181828193810E946F6F20E030E040ECD5
:102640005FE30E9470736B017C01672D772767FD44
:102650007095872F972F0E94EF709B01AC01C701E7
:10266000B6010E947073F801608371838283938343
:10267000F501E35EFD4F60817181828193816093FA
:1026800008027093090280930A0290930B0220E0E3
:1026900030E040E752E40E94507027E1C22E2AE069
:1026A000D22E7B018C0122E13AE04EE05AE06AE052
:1026B0007AE086E09AE00E940D4D0E944D618C2FD9
:1026C0000E94B5612B013C010E943C5A811172C0ED
:1026D000229709F05BC01092500A1092510A109292
:1026E000520A1092530A24E53AE040E55AE06CE4BD
:1026F0007AE088E49AE00E946B57ECEDF9E0C5902F
:10270000D590E590F490F4016491F7FAF094F7F81D
:10271000F094772767FD7095872F972F0E94EF70B1
:102720009B01AC01C701B6010E94707320E030E04C
:1027300040E251E40E94707360930E0A70930F0A96
:102740008093100A9093110A20E030E040E752E4B1
:10275000609108027091090280910A0290910B0227
:102760000E945070C7E1CC2ECAE0DC2E7B018C01A8
:1027700022E13AE04EE05AE06AE07AE086E09AE050
:102780000E940D4D0E944D6185E001C087E0DF9100
:10279000CF911F910F91FF90EF90DF90CF90BF905E
:1027A000AF909F908F907F906F905F904F903F90F1
:1027B0002F907DCDF501E85BF54F108211821282DA
:1027C000138224E53AE040E55AE06CE47AE088E4DC
:1027D0009AE00E946B57C5018C52964F1C01FC0178
:1027E000C590D590E590F490F401649185010A5F5D
:1027F000154FF7FAF094F7F8F094772767FD709586
:10280000872F972F0E94EF709B01AC01C701B60183
:102810000E947073F801608371838283938320E048
:1028200030E040E752E46091080270910902809123
:102830000A0290910B020E945070B7E1CB2EBAE0D1
:10284000DB2E7B018C0122E13AE04EE05AE06AE0A7
:102850007AE086E09AE00E940D4D0E944D61C13001
:10286000D10549F0C230D10561F0209799F480B1CB
:10287000809581700AC080B18295817091E089272E
:1028800004C0079907C086E003C0882319F088E0D8
:102890000EDDA4C0F1016591759185919491F401CB
:1028A000349085010A5F154F9B01AC010E94706F47
:1028B0006B017C01632D772767FD7095872F972F1C
:1028C0000E94EF709B01AC01C701B6010E947073BA
:1028D000F801608371838283938320E030E040E4D9
:1028E00050E4F501E35EFD4F608171818281938147
:1028F0000E945070609308027093090280930A024C
:1029000090930B0220E030E040E752E40E945070C8
:1029100057E1C52E5AE0D52E7B018C0122E13AE029
:102920004EE05AE06AE07AE086E09AE00E940D4DBF
:102930000E944D618C2F0E94B561F4018490640D5A
:10294000751D861D971D0E94EF70FE01EE0FFF1F83
:10295000EE0FFF1FE75AFD4F2081318142815381E5
:102960000E9450706B017C01682D772767FD709580
:10297000872F972F0E94EF709B01AC01C701B60112
:102980000E947073AB01BC01E9EAF2E081918823F7
:1029900039F09091D00095FFFCCF8093D600F6CF10
:1029A00025E030E080E596E074D9CE017AD9F501D2
:1029B000EA5FF54FD501A85BB54F8D919D910D90C4
:1029C000BC91A02D80839183A283B38310920802CF
:1029D0001092090210920A0210920B02DF91CF911D
:1029E0001F910F91FF90EF90DF90CF90BF90AF902D
:1029F0009F908F907F906F905F904F903F902F901F
:102A00000C94495A4F925F926F927F928F929F924D
:102A1000AF92BF92CF92DF92EF92FF920F931F93EC
:102A2000CF93DF933CEDA32E32E0B32E48E4E42EA7
:102A30004AE0F42EC6E0DAE05AE5852E5AE0952EFB
:102A4000640100E010E0F50181915F01C9D988239C
:102A500009F44CC0B1D9688379838A839B83F601DA
:102A60002081211104C02091F909222359F0F70196
:102A700020813181428153810E94706F6883798304
:102A80008A839B838C2D88198330C9F148805980B3
:102A90006A807B8020E030E048E452E4F801E05DA9
:102AA000F54F60817181828193810E946F6F9B01DC
:102AB000AC01C301B2010E94497087FD15C020E03E
:102AC00030E048E452E4F801E35FFD4F608171813A
:102AD000828193810E94706F9B01AC01C301B2019E
:102AE0000E949E7218165CF48EE0E1DBF701808193
:102AF0009181A281B38188839983AA83BB83F4E007
:102B0000EF0EF11C0C5F1F4F24968FEFC81AD80AE6
:102B10000031110509F097CF86E462D9882391F03E
:102B20004BD96B017C0120E030E0A9010E949E722C
:102B3000181644F4C0920802D0920902E0920A02E8
:102B4000F0920B02DF91CF911F910F91FF90EF90C8
:102B5000DF90CF90BF90AF909F908F907F906F90BD
:102B60005F904F9008954EDF89E43AD9882351F061
:102B700023D96093FA097093FB098093FC09909321
:102B8000FD0908C01092FA091092FB091092FC0985
:102B90001092FD098AE424D9882351F00DD960935D
:102BA000FE097093FF098093000A9093010A08952B
:102BB0001092FE091092FF091092000A1092010A69
:102BC00008957F928F929F92AF92BF92CF92DF92A1
:102BD000EF92FF920F931F93CF93DF930E944A6D62
:102BE0002091D6063091D706621B730B80910702A5
:102BF00090E06817790708F470C00E944A6D7093DE
:102C0000D7066093D60604EE16E0C0E0D0E0702E42
:102C10007094F80181918F018823B9F19091D506C4
:102C2000DE01992311F0823019F4A252B94F02C08B
:102C3000A852B94FE091D306F091D406EE0FFF1FD2
:102C4000EF52F84F45915491EC911196FC911197E8
:102C50001296AC919A01B0E00E94B0744C01AA2483
:102C6000BB24AF2FB0E00E94B0746C01EE24FF24AF
:102C7000AE2FB0E00E94B074BC0188279927282DA0
:102C80004C2D872D800F0E94F7482396C630D10522
:102C900009F0BFCF209106028091D3069091D4060F
:102CA000820F911D27FD9A959093D4068093D306A9
:102CB000009769F481E0809306029091D5069923EC
:102CC00019F01092D50609C08093D50606C08F3F33
:102CD000910518F08FEF80930602DF91CF911F913D
:102CE0000F91FF90EF90DF90CF90BF90AF909F90AB
:102CF0008F907F90089580915E0A90915F0A03976C
:102D000011F0069905C00E94BF4C5BDF0C94DD48B2
:102D10008BE0CDDAF8CF2F923F924F925F926F9275
:102D20007F928F929F92AF92BF92CF92DF92EF925B
:102D3000FF920F931F93CF93DF93CDB7DEB7C656A5
:102D4000D1090FB6F894DEBF0FBECDBF87E448D8D7
:102D5000882309F42FC539D86E3171058105910595
:102D600009F408C4CCF4623071058105910509F4B9
:102D700041C024F497FF35C00C94332B63307105A8
:102D80008105910509F440C06C31710581059105FB
:102D900009F444C00C94332B6A3571058105910503
:102DA00009F48CC474F46F3171058105910509F43F
:102DB0004CC4603271058105910509F45DC40C9421
:102DC000332B6C3571058105910509F480C40CF431
:102DD00079C46D3571058105910509F4CAC40C9457
:102DE000332B8091EA0681110C94332B0BDE05D92D
:102DF0000C94332B8091EA0681110C94332BB3DEB3
:102E000081E0ADD90C94332B8091EA0681110C94AA
:102E1000332BA9DE80E0A3D90C94332B10929515A7
:102E20001092961510929715109298151092991568
:102E300010929A1510929B1510929C158090080282
:102E400090900902A0900A02B0900B0280911B02A0
:102E500090911C029093590A8093580A84E690E05E
:102E600090931C0280931B0281E00E94505A809133
:102E7000480A9091490AA0914A0AB0914B0A80935E
:102E8000060A9093070AA093080AB093090A809152
:102E90004C0A90914D0AA0914E0AB0914F0A80932E
:102EA0000A0A90930B0AA0930C0AB0930D0A809122
:102EB000500A9091510AA091520AB091530A8093FE
:102EC0000E0A90930F0AA093100AB093110A8091F2
:102ED000540A9091550AA091560AB091570A8093CE
:102EE000120A9093130AA093140AB093150A109231
:102EF00008021092090210920A0210920B0288E551
:102F00000E94F00E882311F090E00AC089E50E942B
:102F1000F00E8111F9CF8AE50E94F00E91E098271A
:102F200090930C02992309F44BC11092480A109215
:102F3000490A10924A0A10924B0A10924C0A1092B7
:102F40004D0A10924E0A10924F0A1092500A109297
:102F5000510A1092520A1092530A24E53AE040E5D1
:102F60005AE06CE47AE088E49AE00E946B57209182
:102F7000300A3091310A4091320A5091330A6091FF
:102F80000D0270910E0280910F02909110020E942A
:102F90006F6F20E030E040EC5FE30E947073DC0173
:102FA000CB01B0588093060A9093070AA093080AB1
:102FB000B093090A2091340A3091350A4091360ABB
:102FC0005091370A609111027091120280911302A0
:102FD000909114020E946F6F20E030E040EC5FE3BC
:102FE0000E94707360930A0A70930B0A80930C0A14
:102FF00090930D0A2091380A3091390A40913A0A8B
:1030000050913B0A6091150270911602809117024F
:10301000909118020E946F6F20E030E040EC5FE377
:103020000E94707360930E0A70930F0A8093100AC7
:103030009093110A60911D0270911E0280911F02EF
:1030400090912002609308027093090280930A0213
:1030500090930B0220E030E040E752E40E94507071
:10306000F7E1CF2EFAE0DF2E7B018C0122E13AE07E
:103070004EE05AE06AE07AE086E09AE00E940D4D68
:103080000E944D610E94495A80E090E00E94510EDA
:1030900081E090E00E94510E82E090E00E94510E8B
:1030A00024E53AE040E55AE06CE47AE088E49AE00E
:1030B0000E946B578091480A9091490AA0914A0A50
:1030C000B0914B0A8093060A9093070AA093080ACE
:1030D000B093090A80914C0A90914D0AA0914E0A32
:1030E000B0914F0A80930A0A90930B0AA0930C0A9E
:1030F000B0930D0A8091500A9091510AA091520A02
:10310000B091530A80930E0A90930F0AA093100A6D
:10311000B093110A20E030E040E752E460910802E9
:103120007091090280910A0290910B020E945070E6
:103130007B018C0122E13AE04EE05AE06AE07AE05D
:1031400086E09AE00E940D4D10920802109209024A
:1031500010920A0210920B020E944D610E94495A7D
:103160008091060A9091070AA091080AB091090A75
:103170008093480A9093490AA0934A0AB0934B0A55
:1031800080910A0A90910B0AA0910C0AB0910D0A45
:1031900080934C0A90934D0AA0934E0AB0934F0A25
:1031A00080910E0A90910F0AA091100AB091110A15
:1031B0008093500A9093510AA093520AB093530AF5
:1031C00080910C0281110C946B2B8AE50E94F00E09
:1031D00081110C946B2B80910C0281110CC088E53D
:1031E0000E94F00E882309F431C189E50E94F00E97
:1031F000882309F42BC11092480A1092490A1092B0
:103200004A0A10924B0A10924C0A10924D0A1092E0
:103210004E0A10924F0A24E53AE040E55AE06CE489
:103220007AE088E49AE00E946B572091300A30914E
:10323000310A4091320A5091330A60910D02709127
:103240000E0280910F02909110020E946F6F20E099
:1032500030E040EC5FE30E947073DC01CB01B058BA
:103260008093060A9093070AA093080AB093090A6C
:103270002091340A3091350A4091360A5091370A2C
:1032800060911102709112028091130290911402C8
:103290000E946F6F20E030E040EC5FE30E947073AB
:1032A00060930A0A70930B0A80930C0A90930D0A9C
:1032B00020911D0230911E0240911F025091200268
:1032C000209308023093090240930A0250930B02A4
:1032D000C0902102D0902202E0902302F0902402BC
:1032E000C701B6010E94497087FF08C0C09208025A
:1032F000D0920902E0920A02F0920B0220E030E044
:1033000040E752E4609108027091090280910A023C
:1033100090910B020E945070E7E1CE2EEAE0DE2E83
:103320007B018C0122E13AE04EE05AE06AE07AE06B
:1033300086E09AE00E940D4D0E944D6180E090E091
:103340000E94510E81E090E00E94510E24E53AE087
:1033500040E55AE06CE47AE088E49AE00E946B571A
:103360008091480A9091490AA0914A0AB0914B0A6B
:103370008093060A9093070AA093080AB093090A5B
:1033800080914C0A90914D0AA0914E0AB0914F0A3B
:1033900080930A0A90930B0AA0930C0AB0930D0A2B
:1033A00020E030E040E752E46091080270910902A9
:1033B00080910A0290910B020E9450707B018C0157
:1033C00022E13AE04EE05AE06AE07AE086E09AE0F4
:1033D0000E940D4D109208021092090210920A02EA
:1033E00010920B020E944D610E94495A8091060A78
:1033F0009091070AA091080AB091090A8093480A9F
:103400009093490AA0934A0AB0934B0A80910A0A02
:1034100090910B0AA0910C0AB0910D0A80934C0A6E
:1034200090934D0AA0934E0AB0934F0A80910E0AD2
:1034300090910F0AA091100AB091110A8093500A3E
:103440009093510AA093520AB093530A80910C02B0
:1034500081110C94712B88E50E94F00E81110C945F
:10346000712B80910C0281110C94772B89E50E94BD
:10347000F00E81110C94772B88E50E94F00E8823C2
:10348000D1F00E94E50E672B682B692BA1F00E94FA
:10349000DC0E20913C0A30913D0A40913E0A509149
:1034A0003F0A0E94706F6093480A7093490A8093A4
:1034B0004A0A90934B0A89E50E94F00E8823D1F0C6
:1034C0000E94E50E672B682B692BA1F00E94DC0E91
:1034D0002091400A3091410A4091420A5091430A9A
:1034E0000E94706F60934C0A70934D0A80934E0A4D
:1034F00090934F0A8AE50E94F00E8823D1F00E9433
:10350000E50E672B682B692BA1F00E94DC0E209141
:10351000440A3091450A4091460A5091470A0E9458
:10352000706F6093500A7093510A8093520A90937F
:10353000530A24E53AE040E55AE06CE47AE088E496
:103540009AE00E946B5780E00E94505A80920802D5
:1035500090920902A0920A02B0920B028091580A3E
:103560009091590A90931C0280931B020E94495A21
:103570000C94332B86E40E94F00E882321F00E94E5
:10358000E50E5B0103C078E1A72EB12C86E50E9411
:10359000F00E882321F00E94E50E4B0103C0882421
:1035A0008394912C84E40E94F00E882329F00E94D9
:1035B000DC0E2B013C0106C0412C512C50E2652E43
:1035C00051E4752E8AE50E94F00E882329F00E94AE
:1035D000DC0E6B017C0103C0C12CD12C7601930160
:1035E0008201A401B50186E09AE00E940E32609348
:1035F0000E0A70930F0A8093100A9093110AE090BC
:103600002502F0902602009127021091280247E13E
:10361000C42E4AE0D42E22E13AE04EE05AE06AE0BD
:103620007AE086E09AE00E940D4D40910E0A50919A
:103630000F0A6091100A7091110A25E030E080E5D0
:1036400096E00E94490E0C94332B86E50E94F00E02
:10365000882321F00E94E50E8B0102C000E010E0FB
:103660000E94CA400E948240C8010E94323DC801A7
:103670000E94CA3D0C94332B88E50E94F00E8823EB
:1036800051F00E94DC0E609395157093961580930F
:1036900097159093981589E50E94F00E882311F4F0
:1036A0000C94332B0E94DC0E6093991570939A153D
:1036B00080939B1590939C150C94332B1092F909D1
:1036C0000C94332B81E08093F9090C94332B85E41F
:1036D0000E94F00E811102C00E944D613CEDE32E6C
:1036E00032E0F32E08E41AE0D12CD7018D917D0150
:1036F0000E94F00E8823A9F1B3E0DB1220C00E94E3
:10370000DC0EF801608371838283938384E59AE001
:103710000E94E2588AEF96E10E94FA6B8DE397E1EE
:103720000E94FA6B87EB96E10E94FA6B8091170A70
:10373000882311F08130A9F40E94773E12C00E94C4
:10374000DC0ED8016D937D938D939C93139724E5A4
:103750003AE040E55AE06CE47AE088E49AE00E94BE
:103760006B57D3940C5F1F4FB4E0DB12BECF0C94A9
:10377000332B85E40E94F00E882329F00E94DC0E92
:103780006B017C0103C0C12CD12C7601B701A601CD
:103790008AEF96E10E94346CB701A6018DE397E1B0
:1037A0000E94346CB701A60187EB96E10E94346C4D
:1037B0000C94332B8DE40E94F00E882311F40C94AA
:1037C000902A0E94DC0E0E94B8706C3C710509F4CE
:1037D00089C70CF089C06237710509F4A9C50CF0DE
:1037E00046C06335710509F461C5E4F460357105BF
:1037F00009F448C554F46131710509F422C16231FC
:10380000710509F458C50C94332B6135710509F421
:1038100047C56235710511F00C94332B10925D0A87
:103820000C94332B6836710509F449C38CF4643564
:10383000710509F440C56C35710511F00C94332BFA
:103840003CEDE32E32E0F32E09E512E0D12C5FC50A
:103850006A36710509F4EDC40CF469C36B36710561
:1038600011F00C94332B1092160A0C94332B603900
:10387000710509F4F0C1DCF46C38710509F444C336
:1038800064F46337710509F433C66737710511F0C5
:103890000C94332BE8EDF5E06CC66E38710509F435
:1038A000DEC06F38710509F417C10C94332B6639EB
:1038B000710509F455C254F46139710509F4DCC18C
:1038C0006539710509F4E9C10C94332B693C710524
:1038D00009F4CBC66B3C710509F4E8C6673971057C
:1038E00011F00C94332BCBC26733E1E07E0711F467
:1038F0000C945B280CF04FC0623221E0720711F487
:103900000C945A250CF56A3D710509F480C784F4BE
:103910006D3C710509F406C76E3C710511F00C94FD
:10392000332B0CED12E08CE3E82E8AE0F82E60C712
:103930006C3D710511F40C943C256D3D710511F43D
:103940000C944B250C94332B6D3241E0740711F429
:103950000C94CF266CF4633281E0780711F40C9458
:103960007A256432714011F40C94A9250C94332B00
:103970006033A1E07A0711F40C948E276633B1E02E
:103980007B0711F40C9413286E32714011F00C94E3
:10399000332B0C9405286B38F3E07F0711F40C945B
:1039A000C7293CF56A3331E0730711F40C943C29C4
:1039B0007CF4683351E0750711F40C9439296933AC
:1039C000714011F00C94332B0E9482400C94332BE5
:1039D000603991E0790711F40C945A2961397140EA
:1039E00011F00C94332B0E94D161E5E9F5E00C94C1
:1039F0006429603EBEE27B0711F40C94F3297CF449
:103A0000663EF3E07F0711F40C94ED29673E7340A6
:103A100011F00C94332B1092EA060C94332B623E77
:103A20003EE2730711F40C94512A14F40C94222AE8
:103A3000633E7E4211F00C94332BE0EEF9E00C94DF
:103A40007B2A15984698439840989FB7F8948091A0
:103A50000B018D7F80930B019FBF0C94332B82E76A
:103A60000E94F00E882331F00E94DC0E0E94BD708F
:103A7000062F01C000E087E60E94F00E882331F097
:103A80000E94DC0E0E94BD70F62E01C0F12C82E671
:103A90000E94F00E882331F00E94DC0E0E94BD705F
:103AA000E62E01C0E12C87E70E94F00E882331F05A
:103AB0000E94DC0E0E94BD70162F01C010E0212F65
:103AC0004E2D6F2D802F0E94BB44612F70E088E047
:103AD0000E94DD6D0C94332B82E40E94F00E88234B
:103AE00031F00E94DC0E0E94BD706093070284E5F5
:103AF0000E94F00E882359F00E94DC0E0E94BD70D7
:103B0000F62E81E08F1510F40C94332B01C0F12CAC
:103B100082E70E94F00E0F2D10E0882379F00E94BA
:103B2000DC0E6801CC0CDD1CC00ED11ED601A252E9
:103B3000B94F6D010E94BD70F601608387E60E9457
:103B4000F00E882381F00E94DC0E6801CC0CDD1C95
:103B5000C00ED11E96012252394F69010E94BD70DC
:103B6000D60111966C9382E60E94F00E882381F0B4
:103B70000E94DC0E6801CC0CDD1CC00ED11EF601CB
:103B8000E252F94F6F010E94BD70D60112966C93FC
:103B900081E50E94F00E882379F00E94DC0E680116
:103BA000CC0CDD1CC00ED11EF601E852F94F6F019E
:103BB0000E94BD70D6016C9382E50E94F00E8823AE
:103BC00081F00E94DC0E6801CC0CDD1CC00ED11E01
:103BD000F601E852F94F6F010E94BD70D6011196AF
:103BE0006C9383E50E94F00E882381F00E94DC0E26
:103BF0006801CC0CDD1CC00ED11EF601E852F94F55
:103C00006F010E94BD70D60112966C9380E50E94F0
:103C1000F00E882351F00E94DC0EF801EC51F94FB0
:103C20006F010E94BD70D6016C93F801EC51F94F01
:103C3000808181110C94332BF801EE0FFF1FE00FF0
:103C4000F11FE252F94F2281418160818F2D0E9444
:103C5000F7480C94332B84E50E94F00E882311F46E
:103C60000C94332B0E94DC0E0E94BD70862F61E005
:103C70000E9407650C94332B84E50E94F00E882384
:103C800011F40C94332B0E94DC0E0E94BD70862F21
:103C900060E00E9407650C94332B84E50E94F00ECF
:103CA000882311F40C947D2B0E94DC0E20E030E080
:103CB000A9010E944970882311F40C947D2B81E0A6
:103CC000BE016F5F7F4F0E94D947882399F1E2E3DD
:103CD000F7E08491882341F09091D00095FFFCCFCC
:103CE0008093D6003196F5CF8E010F5F1F4F7E0176
:103CF000B7E0EB0EF11C6801F8018081803138F4E7
:103D000040E050E060E380E596E00E94260D0F5F02
:103D10001F4F40E150E0D6016C9180E596E00E9493
:103D20009C0D0E151F0539F780E596E00E942E0DBB
:103D30000C94332BE8E2F7E08491882341F09091D2
:103D4000D00095FFFCCF8093D6003196F5CF8091BF
:103D5000D00085FFFCCF8AE08093D6000C94332BF3
:103D60008E010F5B1F4FF801108284E50E94F00E58
:103D7000882311F40C94802B0E94DC0E20E030E0AC
:103D8000A9010E944970882311F40C94802BFF2410
:103D9000F39480E50E94F00E8823E1F00E94DC0E8F
:103DA0000E94BD706430B8F0E0E1F7E084918823B0
:103DB00041F09091D00095FFFCCF8093D6003196D2
:103DC000F5CF8091D00085FFFCCF8AE08093D600AC
:103DD0000C94332B60E06295660F607E20E2AE01AA
:103DE0004E5B5F4F8F2D0E940248882391F1FE01A8
:103DF0003196CE018E5B9F4FBF01DC012D91CD012D
:103E0000A22FB0E034E0B595A7953A95E1F7A55318
:103E1000BD4F3C9130832F70A22FB0E0A553BD4F12
:103E20002C9121833296E017F10739F7E7E0F7E0AC
:103E30008491882341F09091D00095FFFCCF80932E
:103E4000D6003196F5CF80E596E00E94420D0C94A5
:103E5000332BEDEFF6E08491882341F09091D00070
:103E600095FFFCCF8093D6003196F5CF8091D0009E
:103E700085FFFCCF8AE08093D6000C94332B84E539
:103E80000E94F00E882311F40C94472C0E94DC0E43
:103E900020E030E040E85FE30E944970882311F49D
:103EA0000C94832B0E94DC0E20E030E0A9010E94DC
:103EB0004970882311F40C94832B0C94472C0E9496
:103EC000700F81110C94332B83E50E94F00E882330
:103ED00011F40C94332BE091EB06F0E0ED56FD4F1E
:103EE000808181110C94332B0E94DC0EE091EB0653
:103EF00033E4E39FF0011124E650F94E63A774A761
:103F000085A796A70C94332B83E50E94F00E882397
:103F100011F40C94332B0E94DC0E6093E216709324
:103F2000E3168093E4169093E5160C94332BEEE39E
:103F3000F6E08491882341F09091D00095FFFCCF6A
:103F40008093D6003196F5CFE091F006F0E0EF5087
:103F5000F64F608170E04AE050E080E596E00E9414
:103F60004F0DEBE3F6E08491882341F09091D0006F
:103F700095FFFCCF8093D6003196F5CF0E940D5966
:103F80006FE070E0681B71094AE050E080E596E060
:103F90000E944F0D1092EB0608E316E073E4F72E33
:103FA000EE24E3948091EB06823008F0DFC0F80144
:103FB0008491E8E3F6E0882349F09091D00095FFE2
:103FC000FCCF8093D60031968491F5CF6091EB06BB
:103FD00070E04AE050E080E596E00E944F0D40E03E
:103FE00050E06AE380E596E00E94260DE091EB0642
:103FF00024E0E29FF0011124EF59F94E40815181F4
:104000006281738121E030E080E596E00E94480EF5
:1040100040E050E06FE280E596E00E94260DE091DE
:10402000EB06FE9EF0011124E650F94E43A554A57F
:1040300065A576A521E030E080E596E00E94480E77
:1040400040E050E060E480E596E00E94260D80911B
:10405000EB0690E0880F991FFC01EF5AF94E608142
:10406000718161157105E9F0FC01EB5AF94E80810F
:1040700091810E9445744AE050E080E596E00E94FC
:10408000A20D8091EB0690E0880F991FFC01EB5A7E
:10409000F94E11821082FC01EF5AF94E1182108202
:1040A00007C040E050E060E380E596E00E94260D06
:1040B00040E050E060E780E596E00E94260DE09148
:1040C000EB06F0E0E75AF94E608170E04AE050E01C
:1040D00080E596E00E944F0D40E050E065E680E507
:1040E00096E00E94260DE091EB06F0E0ED56FD4FC4
:1040F00060816E2570E04AE050E080E596E00E9425
:104100004F0D40E050E066E680E596E00E94260D07
:10411000E091EB06F0E0EE0FFF1FE053F04F6081FF
:1041200071814AE050E080E596E00E94A20D40E0F7
:1041300050E06FE280E596E00E94260DE091EB06EC
:1041400034E0E39FF0011124E853F04F40815181A6
:10415000628173812AE030E080E596E00E94170DCD
:104160008091EB068F5F8093EB061CCFE5E3F6E0D2
:104170008491882341F09091D00095FFFCCF8093EB
:10418000D6003196F5CF40915B1650915C16609148
:104190005D1670915E1621E030E080E596E00E94A9
:1041A000480E40E050E06FE280E596E00E94260D68
:1041B0004091E2165091E3166091E4167091E51675
:1041C00021E030E080E596E00E94480E40E050E0BB
:1041D00060E480E596E00E94260D60914D16709196
:1041E0004E1661157105A9F080914F1690915016E9
:1041F0000E9445744AE050E080E596E00E94A20DDE
:104200001092501610924F1610924E1610924D1694
:1042100007C040E050E060E380E596E00E94260D94
:104220008091D00085FFFCCF8AE08093D6000C946B
:10423000A02C83E50E94F00E8823F9F00E94DC0E8A
:1042400020E030E0A9010E94497087FD0FC00E9464
:10425000DC0E20E030E04FE753E40E949E72181617
:104260003CF00E94DC0E0E94BD7003C060E001C003
:104270006FEF6093160A0C94332B8FEF8093160A1E
:104280000C94332B0A9A129A80915E0A90915F0ADD
:10429000039711F00C94332B0E9A16980C94332B31
:1042A0000E944D610E948F0E0C94332B81E080930D
:1042B0005D0A0C94332B88E50E94F00E81110C945A
:1042C000712C89E50E94F00E81110C94712C8AE505
:1042D0000E94F00E81110C94712C85E40E94F00E66
:1042E00081110C94712C0C94922CB3E0DB1217C04A
:1042F0000E94DC0EF8016083718382839383D394E0
:104300000C5F1F4FB4E0DB1611F40C94332BD70174
:104310008D917D010E94F00E882389F3E6CF0E94E3
:10432000DC0ED8016D937D938D939C931397E7CF0B
:10433000E2E3F6E08491882341F09091D00095FF6C
:10434000FCCF8093D6003196F5CF4091480A50912A
:10435000490A60914A0A70914B0A22E030E080E5F8
:1043600096E00E94480EEFE2F6E08491882341F047
:104370009091D00095FFFCCF8093D6003196F5CF79
:1043800040914C0A50914D0A60914E0A70914F0A2B
:1043900022E030E080E596E00E94480EECE2F6E094
:1043A0008491882341F09091D00095FFFCCF8093B9
:1043B000D6003196F5CF4091500A5091510A609144
:1043C000520A7091530A22E030E080E596E00E94A4
:1043D000480EE9E2F6E08491882341F09091D00004
:1043E00095FFFCCF8093D6003196F5CF4091540ACB
:1043F0005091550A6091560A7091570A22E030E0B8
:1044000080E596E00E94480EEFE1F6E08491882373
:1044100041F09091D00095FFFCCF8093D60031966B
:10442000F5CF0E94B5610E94EF7020915902309142
:104430005A0240915B0250915C020E945070AB01A5
:10444000BC0122E030E080E596E00E94480EECE1FD
:10445000F6E08491882341F09091D00095FFFCCF45
:104460008093D6003196F5CF81E00E94B5610E941D
:10447000EF7020915D0230915E0240915F02509199
:1044800060020E945070AB01BC0122E030E080E588
:1044900096E00E94480EE9E1F6E08491882341F01D
:1044A0009091D00095FFFCCF8093D6003196F5CF48
:1044B00082E00E94B5610E94EF702091610230910C
:1044C000620240916302509164020E945070AB01FD
:1044D000BC0122E030E080E596E00E94480E809129
:1044E000D00085FFFCCF8AE08093D6000C94332B5C
:1044F000E7E0F6E08491882341F09091D00095FFA9
:10450000FCCF8093D6003196F5CFEEEFF5E08491A5
:10451000882341F09091D00095FFFCCF8093D60086
:104520003196F5CF60915E0A70915F0A4AE050E0E3
:1045300080E596E00E944F0DE0EEF5E0849188233F
:1045400041F09091D00095FFFCCF8093D60031963A
:10455000F5CF8091D00085FFFCCF8AE08093D60014
:104560000C94332B9091D00095FFFCCF8093D60014
:10457000319684918111F6CF009903C0EAEBF2E005
:1045800009C0E4ECF2E006C09091D00095FFFCCFAA
:104590008093D60081918111F7CFE6EBF4E0819111
:1045A000882339F09091D00095FFFCCF8093D600FE
:1045B000F6CFE0EDF5E08491882341F09091D000B2
:1045C00095FFFCCF8093D6003196F5CF049903C0B8
:1045D000EAEBF2E009C0E4ECF2E006C09091D00012
:1045E00095FFFCCF8093D60081918111F7CFE6EB48
:1045F000F4E08191882339F09091D00095FFFCCFB1
:104600008093D600F6CFE8ECF5E08491882341F062
:104610009091D00095FFFCCF8093D6003196F5CFD6
:10462000079903C0EAEBF2E009C0E4ECF2E006C04F
:104630009091D00095FFFCCF8093D600819181119D
:10464000F7CFE6EBF4E08191882339F09091D00028
:1046500095FFFCCF8093D600F6CF8091D00085FFE8
:10466000FCCF8AE08093D600FEC70CED12E029E46F
:10467000E22E22E0F22EF80181918F010E94F00ECD
:10468000882351F00E94DC0E0E94BD70D7016D930B
:104690007D938D939C931397B4E0EB0EF11CE2E0B5
:1046A000003E1E0741F70E941D59DDC70CED12E0C8
:1046B00099E6E92E92E0F92ED8018D918D010E94A4
:1046C000F00E882339F00E94DC0EF70160837183BD
:1046D00082839383F4E0EF0EF11C22E0003E120788
:1046E00059F7C1C783E50E94F00E882351F00E945C
:1046F000DC0E6093450270934602809347029093CC
:10470000480284E50E94F00E882309F4ACC70E9499
:10471000DC0E6093410270934202809343029093B7
:104720004402A1C783E50E94F00E882351F00E9445
:10473000DC0E6093D5157093D6158093D7159093A2
:10474000D81584E50E94F00E882351F00E94DC0EFB
:104750006093D1157093D2158093D3159093D4158F
:1047600082E40E94F00E882361F00E94DC0E0E9419
:10477000BD706093790270937A0280937B0290936C
:104780007C0288E50E94F00E882351F00E94DC0E26
:1047900060933D0270933E0280933F0290934002EB
:1047A0008AE50E94F00E882351F00E94DC0E60938F
:1047B000390270933A0280933B0290933C0285E465
:1047C0000E94F00E882309F44EC70E94DC0E60930D
:1047D000350270933602809337029093380243C7B4
:1047E000F4E0EF0EF11C22E00F3D120709F43BC785
:1047F000D8018D918D010E94F00E882389F30E94CB
:10480000DC0EF7016083718382839383E9CF0E947A
:10481000700F811128C788E50E94F00E882329F1C6
:104820000091EB0610E00E94DC0E209159023091BD
:104830005A0240915B0250915C020E9470730E9488
:104840004073F801EE0FFF1FEE0FFF1FE85EF54FFC
:104850009B01AC0188279927DC01821B930BA40BD9
:10486000B50B80839183A283B38389E50E94F00E08
:10487000882329F10091EB0610E00E94DC0E2091C4
:104880005D0230915E0240915F02509160020E9491
:1048900070730E944073F801EE0FFF1FEE0FFF1FB1
:1048A000E05EF54F9B01AC0188279927DC01821B54
:1048B000930BA40BB50B80839183A283B3838AE50A
:1048C0000E94F00E882329F10091EB0610E00E946F
:1048D000DC0E20916102309162024091630250919E
:1048E00064020E9470730E944073F801EE0FFF1F74
:1048F000EE0FFF1FE85DF54F9B01AC01882799275C
:10490000DC01821B930BA40BB50B80839183A283E4
:10491000B383E0EEF9E08491882341F09091D000D8
:1049200095FFFCCF8093D6003196F5CFE8EBF5E00C
:104930008491882341F09091D00095FFFCCF809323
:10494000D6003196F5CF1092EB068091EB068230BF
:1049500008F08AC0E6EBF4E08191882339F0909169
:10496000D00095FFFCCF8093D600F6CFE091EB0608
:1049700034E0E39FF0011124E85EF54F608171811E
:10498000828193810E94EF702091590230915A02E6
:1049900040915B0250915C020E945070AB01BC01DF
:1049A00022E030E080E596E00E94480EE9ECF2E07B
:1049B0008191882339F09091D00095FFFCCF8093AE
:1049C000D600F6CFE091EB0644E0E49FF00111241D
:1049D000E05EF54F60817181828193810E94EF706A
:1049E00020915D0230915E0240915F025091600221
:1049F0000E945070AB01BC0122E030E080E596E0FF
:104A00000E94480EE9ECF2E08191882339F0909100
:104A1000D00095FFFCCF8093D600F6CFE091EB0657
:104A200054E0E59FF0011124E85DF54F608171814C
:104A3000828193810E94EF70209161023091620225
:104A400040916302509164020E945070AB01BC011E
:104A500022E030E080E596E00E94480E8091EB066F
:104A60008F5F8093EB0671CF8091D00085FFFCCFE4
:104A70008AE08093D600F7C583E50E94F00E882374
:104A800009F4F1C50E94DC0E0E94B87070931C02FC
:104A900060931B02E8C583E50E94F00E882309F4A9
:104AA000E2C50E94DC0E0E94B87070931A026093F7
:104AB0001902D9C580E50E94F00E882351F00E94AA
:104AC000DC0E6093AF167093B0168093B11690937E
:104AD000B21689E40E94F00E882309F4C4C50E942E
:104AE000DC0E6093B3167093B4168093B516909352
:104AF000B616B9C582E50E94F00E882351F00E94D7
:104B0000DC0E6093A7167093A8168093A916909355
:104B1000AA1681E40E94F00E882351F00E94DC0E58
:104B20006093AB167093AC168093AD169093AE164F
:104B300086E50E94F00E882309F495C50E94DC0EDC
:104B400060939F167093A0168093A1169093A2165F
:104B50008AC50E94700F811186C582E50E94F00E01
:104B6000882309F45BC00E94DC0E6B017C0100917C
:104B7000EB0680916D16081708F050C086E1089F7B
:104B8000800111240259194ED8011696CD92DD925A
:104B9000ED92FC92199720E030E0A901C701B6011F
:104BA0000E944970811103C0F801118237C0D801F9
:104BB0001A966D917D918D919C911D979B01AC01F1
:104BC0000E947073A70196010E9450706B017C01D6
:104BD000F80166877787808B918B20E030E04FE784
:104BE00053E462817381848195810E947073A7016F
:104BF00096010E9450706B017C0120E030E04FE78D
:104C000053E40E949E7218162CF0C701B6010E9450
:104C1000BD7001C06FEFD80111966C9386E50E94BC
:104C2000F00E882309F459C00E94DC0E6B017C0150
:104C30000091EB0680916D16081708F04EC0B6E1A2
:104C40000B9F800111240259194EF801C286D386A8
:104C5000E486F58686809780A084B18420E030E0E9
:104C6000A901C501B4010E944970811104C0D80195
:104C700011961C9232C0A7019601C701B6010E948D
:104C80007073A50194010E9450706B017C01F801C2
:104C900066877787808B918B20E030E04FE753E485
:104CA00062817381848195810E947073A70196014E
:104CB0000E9450706B017C0120E030E04FE753E42C
:104CC0000E949E7218162CF0C701B6010E94BD709A
:104CD00001C06FEFD80111966C9380E50E94F00E31
:104CE000882309F4C0C40E94DC0E4B015C010091D2
:104CF000EB0680916D16081708F0B5C4B6E10B9F5E
:104D0000800111240259194EF80182829382A482F3
:104D1000B582C680D780E084F18420E030E0A9012C
:104D2000C701B6010E944970811104C0D8011196D3
:104D30001C9299C4F80162857385848595859B01D1
:104D4000AC010E947073A70196010E9450706B0124
:104D50007C01D8011E966D937D938D939C93519702
:104D600020E030E04FE753E4C501B4010E947073C6
:104D7000A70196010E9450706B017C0120E030E099
:104D80004FE753E40E949E7218162CF0C701B6013B
:104D90000E94BD7001C06FEFF801618364C40E947E
:104DA000700F811160C486E40E94F00E882371F0B8
:104DB0000E94DC0EE091EB0623E4E29FF001112457
:104DC000E650F94E608371838283938380E50E946D
:104DD000F00E882371F00E94DC0EE091EB0633E4C4
:104DE000E39FF0011124E650F94E648375838683B6
:104DF000978389E40E94F00E8823B9F00E94DC0EAC
:104E00000091EB0643E4049F800111240650194EE3
:104E10002DEB37E346E05DE30E947073D8011896EE
:104E20006D937D938D939C931B9784E40E94F00E69
:104E30008823A9F00E94DC0E0091EB06B3E40B9FDF
:104E4000800111240650194E2DEB37E346E05DE357
:104E50000E945070F801648775878687978789E676
:104E60000E94F00E882371F00E94DC0EE091EB06A8
:104E700023E4E29FF0011124E650F94E608B718B20
:104E8000828B938B82E50E94F00E882371F00E9442
:104E9000DC0EE091EB0633E4E39FF0011124E650D1
:104EA000F94E658F768F878F90A383E40E94F00E72
:104EB000882371F00E94DC0EE091EB0643E4E49F4E
:104EC000F0011124E650F94E648B758B868B978B1D
:104ED00085E40E94F00E882309F4C5C30E94DC0E0D
:104EE000F090EB0653E4F59E800111240650194E14
:104EF0002DEB37E346E05DE30E94507020E030E0A8
:104F00004FE753E40E947073D80158966D937D93D8
:104F10008D939C935B975C96FC92A5C386E40E945C
:104F2000F00E882351F00E94DC0E6093B716709348
:104F3000B8168093B9169093BA1680E50E94F00EC9
:104F4000882351F00E94DC0E6093BB167093BC1650
:104F50008093BD169093BE1689E40E94F00E8823BC
:104F600081F00E94DC0E2DEB37E346E05DE30E940A
:104F700070736093BF167093C0168093C1169093A0
:104F8000C21684E40E94F00E882381F00E94DC0E99
:104F90002DEB37E346E05DE30E9450706093C3164B
:104FA0007093C4168093C5169093C61689E60E9426
:104FB000F00E882351F00E94DC0E6093C7167093A8
:104FC000C8168093C9169093CA1682E50E94F00E07
:104FD000882351F00E94DC0E6093D4167093D5168E
:104FE0008093D6169093D71683E40E94F00E882300
:104FF00009F439C30E94DC0E6093CB167093CC1673
:105000008093CD169093CE162EC383E50E94F00EAA
:10501000882319F00E94DC0E03C060E070E0CB0131
:105020000E94145920C383E50E94F00E882331F0BA
:105030000E94DC0E0E94BD707B0103C0EE24E3944D
:10504000F12C00E010E00E151F0509F40CC3CE0191
:1050500001960E942941811105C00E94AF660E94FD
:105060007B16F5CF69817A814AE050E080E596E0D1
:105070000E94A20D40E050E060E280E596E00E94D0
:10508000260D82E00E94B5610E94EF7020916102BE
:105090003091620240916302509164020E9450700C
:1050A000AB01BC0124E030E080E596E00E94490EAF
:1050B0000F5F1F4FC8CF83E50E94F00E882331F0A9
:1050C0000E94DC0E0E94BD708B0102C000E117E25D
:1050D000A12CB12CC12CD12C7601212C312CEFEF3D
:1050E000FFEFA496FFAFEEAFA497A016B10621F193
:1050F000CE0101960E942941811105C00E94AF6630
:105100000E947B16F5CF89819A81C80ED91EE11CB9
:10511000F11CA4962EAD3FADA4978217930720F4FF
:10512000A4969FAF8EAFA4972816390608F41C01E9
:105130003FEFA31AB30AD9CF2801612C712CC70104
:10514000B601A30192010E946C7449015A01A6960E
:105150001FAE1EAEA697C12CD12C7601A6968EADA1
:105160009FADA6978017910731F1CE0101960E945D
:105170002941811105C00E94AF660E947B16F5CFC0
:1051800089819A81A5019401281B390B4109510994
:10519000CA01B9010E943674C60ED71EE81EF91E58
:1051A000A6964EAD5FADA6974F5F5F4FA6965FAFD9
:1051B0004EAFA697D3CFC701B601A30192010E94BB
:1051C0006C7469017A01EEEAF5E08491882341F07C
:1051D0009091D00095FFFCCF8093D6003196F5CF0B
:1051E0002AE030E0B501A40180E596E00E94B30D0D
:1051F000E8EAF5E08491882341F09091D00095FF92
:10520000FCCF8093D6003196F5CF4AE050E0A496CB
:105210006EAD7FADA49780E596E00E94A70DE2EA0F
:10522000F5E08491882341F09091D00095FFFCCF68
:105230008093D6003196F5CF4AE050E0B10180E589
:1052400096E00E94A70DE7E9F5E08491882341F0FC
:105250009091D00095FFFCCF8093D6003196F5CF8A
:105260002AE030E0B701A60180E596E00E94B30D88
:10527000FAC10E94CA40F7C18AE50E94F00E882355
:1052800029F00E94DC0E6B017C0103C0C12CD12CE3
:10529000760186E40E94F00E882331F00E94DC0E35
:1052A0000E94B870CB0102C080E090E0B701A60177
:1052B0000E94693C0E944D61D6C19091D00095FF3B
:1052C000FCCF8093D600319684918111F6CF409126
:1052D000480A5091490A60914A0A70914B0A23E0AA
:1052E00030E080E596E00E94480EE2E9F5E0849126
:1052F000882341F09091D00095FFFCCF8093D60099
:105300003196F5CF40914C0A50914D0A60914E0A6A
:1053100070914F0A23E030E080E596E00E94480E4D
:10532000EFE8F5E08491882341F09091D00095FF5B
:10533000FCCF8093D6003196F5CF4091500A509122
:10534000510A6091520A7091530A23E030E080E5DF
:1053500096E00E94480EECE8F5E08491882341F045
:105360009091D00095FFFCCF8093D6003196F5CF79
:105370004091540A5091550A6091560A7091570A0B
:1053800023E030E080E596E00E94490E6CC188E59C
:105390000E94F00E882339F00E94DC0E0E94B87043
:1053A00080E00E9489628AE50E94F00E882339F02D
:1053B0000E94DC0E0E94B87081E00E94896285E440
:1053C0000E94F00E882309F44EC10E94DC0E0E9458
:1053D000B87082E00E94896246C18CE00E94571139
:1053E0000E948F0E40C188E50E94F00E882351F084
:1053F0000E94DC0E60930D0270930E0280930F02E8
:105400009093100289E50E94F00E882351F00E94CB
:10541000DC0E60931102709312028093130290933A
:1054200014028AE50E94F00E882309F41CC10E9430
:10543000DC0E60931502709316028093170290930E
:10544000180211C188E50E94F00E882351F00E94D5
:10545000DC0E6093300A7093310A8093320A909385
:10546000330A89E50E94F00E882351F00E94DC0E79
:105470006093340A7093350A8093360A9093370A02
:105480008AE50E94F00E882309F4EDC00E94DC0E2C
:105490006093380A7093390A80933A0A90933B0AD2
:1054A000E2C083E50E94F00E882309F4DCC00E946C
:1054B000DC0E11E020E030E0A9010E94497081116A
:1054C00001C010E01093C70F112309F4CCC080E095
:1054D0000E94AA3F80E00E94773E81E00E94AA3F9E
:1054E00081E00E94773EBFC09091D00095FFFCCF35
:1054F0008093D600319684918111F6CF60915E0A37
:1055000070915F0A4AE050E080E596E00E944F0DFE
:105510008091D00085FFFCCF8AE08093D600A3C0A5
:1055200084E50E94F00E882309F45DC00E94DC0E21
:105530000E94BD706093EB06623008F094C086E470
:105540000E94F00E8823A1F00E94DC0E6B017C010A
:1055500020E030E0A9010E949E7218165CF4C0920F
:105560000802D0920902E0920A02F0920B0202C0F5
:1055700080E001C081E09091EB062091170A92171C
:1055800009F471C020E1E8E4FAE0A6E0BAE0019095
:105590000D922A95E1F79093170A882309F463C0C6
:1055A0008091EA0681115FC020E030E040E752E4DC
:1055B000609108027091090280910A0290910B0299
:1055C0000E94507037E1C32E3AE0D32E7B018C014C
:1055D00022E13AE04EE05AE06AE07AE086E09AE0C2
:1055E0000E940D4D40C0E0EEF9E08491882341F027
:1055F0009091D00095FFFCCF8093D6003196F5CFE7
:10560000E9E7F5E08491882341F09091D00095FF7F
:10561000FCCF8093D6003196F5CFE091F00690E66E
:10562000E99FF0011124EF50F94F8191882339F05F
:105630009091D00095FFFCCF8093D600F6CFE7E79E
:10564000F5E08491882341F09091D00095FFFCCF44
:105650008093D6003196F5CF8091D00085FFFCCFA6
:105660008AE08093D600E2E7F5E08491882341F058
:105670009091D00095FFFCCF8093D6003196F5CF66
:10568000E091F006F0E0EF50F64F608170E04AE004
:1056900050E080E596E00E944F0DEFE6F5E0849142
:1056A000882341F09091D00095FFFCCF8093D600E5
:1056B0003196F5CF0E940D596FE070E0681B7109BB
:1056C0004AE050E080E596E00E944F0D80E596E0CC
:1056D0000E942E0D35C182E090E00E94D7120C94FA
:1056E000EB1880E090E00E94D7120C94311A81E010
:1056F00090E00E94D7120C943C1A80E00C94601E3B
:10570000F12C0C94C91E0E94DC0E0E94BD70F62E76
:1057100081E40E94F00E8823E1F00E94DC0E0E94DA
:10572000BD7084E4A7966FAFA7970E94F00EA7966E
:105730006FADA797882309F455C00091EC0610912E
:10574000ED060F5F1F4FFE013196C12CD12CAF012A
:1057500015C0E8EBF6E08491882341F09091D000E9
:1057600095FFFCCF8093D6003196F5CF8091D00085
:1057700085FFFCCF8AE08093D60075CFD8012D91AC
:105780008D018FE9820F863030F4332727FD309565
:105790002755310914C08FEB820F863030F4332740
:1057A00027FD3095275331090AC080ED820F8A30DA
:1057B00008F082C0332727FD309520533109C0FC03
:1057C00004C02295207F208303C08081820F8193B3
:1057D000BFEFCB1ADB0A20E1C216D10479F6EFE85D
:1057E000F6E01CC0E7E9F6E08491882341F090914F
:1057F000D00095FFFCCF8093D6003196F5CF8091F5
:10580000D00085FFFCCF8AE08093D6002CCF90910A
:10581000D00095FFFCCF8093D60031968491811102
:10582000F6CF8091D00085FFFCCF8AE08093D60030
:105830008F2D0E942B488823A9F0E2E8F6E084919E
:10584000882341F09091D00095FFFCCF8093D60043
:105850003196F5CF8091D00085FFFCCF8AE0809310
:10586000D60001CFEAE6F6E08491882341F09091DA
:10587000D00095FFFCCF8093D6003196F5CF809174
:10588000D00085FFFCCF8AE08093D600ECCEECED13
:10589000F6E08491882341F09091D00095FFFCCFF1
:1058A0008093D6003196F5CF8091D00085FFFCCF54
:1058B0008AE08093D600D7CEE3E4F6E08491882393
:1058C00041F09091D00095FFFCCF8093D6003196A7
:1058D000F5CF8091D00085FFFCCF8AE08093D60081
:1058E000C2CE0E944D6188E50E94F00E8111159A8A
:1058F00089E50E94F00E8111469A8AE50E94F00E19
:105900008111439A85E40E94F00E882309F4ABCEFE
:10591000409A9FB7F89480910B01826080930B01AD
:105920009FBFA1CE0E944D61409A9FB7F89480918D
:105930000B01826080930B019FBF0E94C36193CED5
:10594000CA59DF4F0FB6F894DEBF0FBECDBFDF914F
:10595000CF911F910F91FF90EF90DF90CF90BF906C
:10596000AF909F908F907F906F905F904F903F90FF
:105970002F9008958F929F92AF92BF92CF92DF9215
:10598000EF92FF9288E09FE052D28091EE0688234A
:1059900049F01092E6061092E7061092E80610927F
:1059A000E9066DC080905B1690905C16A0905D1625
:1059B000B0905E1620E030E048E452E46091611659
:1059C0007091621680916316909164160E949E7287
:1059D0001816E4F0C0906516D0906616E090671631
:1059E000F090681620E030E048E452E4C501B401CC
:1059F0000E949E72181654F020E030E048E452E411
:105A0000C701B6010E949E721816CCF58091E60679
:105A10009091E706A091E806B091E906892B8A2BC0
:105A20008B2B59F40E944A6D6093E6067093E7064B
:105A30008093E8069093E90622C00E944A6DC090C8
:105A4000E606D090E706E090E806F090E9066C19CB
:105A50007D098E099F09603E73498440910578F065
:105A600020E04EE16FEF80E00E94F74820E04EE139
:105A70006FEF81E00E94F7488DE00E9457118091FE
:105A8000EE06882389F00E948B168091EE0688230B
:105A900059F081508093EE068091F00690E00196D7
:105AA000877099278093F0060E94AF660E947B164C
:105AB0000E94AD598091C70F882381F08091170A09
:105AC000882311F0813051F4FF90EF90DF90CF9058
:105AD000BF90AF909F908F900C948E3EFF90EF9070
